{
  "_format": "hh-sol-artifact-1",
  "contractName": "TokenStaking",
  "sourceName": "contracts/TokenStaking.sol",
  "abi": [
    {
      "inputs": [],
      "stateMutability": "nonpayable",
      "type": "constructor"
    },
    {
      "anonymous": false,
      "inputs": [
        {
          "indexed": true,
          "internalType": "address",
          "name": "previousOwner",
          "type": "address"
        },
        {
          "indexed": true,
          "internalType": "address",
          "name": "newOwner",
          "type": "address"
        }
      ],
      "name": "OwnershipTransferred",
      "type": "event"
    },
    {
      "anonymous": false,
      "inputs": [
        {
          "indexed": true,
          "internalType": "address",
          "name": "user",
          "type": "address"
        },
        {
          "indexed": false,
          "internalType": "uint256",
          "name": "profit",
          "type": "uint256"
        },
        {
          "indexed": false,
          "internalType": "uint8",
          "name": "poolId",
          "type": "uint8"
        }
      ],
      "name": "ProfitWithdrawn",
      "type": "event"
    },
    {
      "anonymous": false,
      "inputs": [
        {
          "indexed": true,
          "internalType": "address",
          "name": "user",
          "type": "address"
        },
        {
          "indexed": false,
          "internalType": "uint256",
          "name": "amount",
          "type": "uint256"
        },
        {
          "indexed": false,
          "internalType": "uint8",
          "name": "poolId",
          "type": "uint8"
        }
      ],
      "name": "Staked",
      "type": "event"
    },
    {
      "anonymous": false,
      "inputs": [
        {
          "indexed": true,
          "internalType": "address",
          "name": "user",
          "type": "address"
        },
        {
          "indexed": false,
          "internalType": "uint256",
          "name": "amount",
          "type": "uint256"
        },
        {
          "indexed": false,
          "internalType": "uint256",
          "name": "reward",
          "type": "uint256"
        },
        {
          "indexed": false,
          "internalType": "uint8",
          "name": "poolId",
          "type": "uint8"
        }
      ],
      "name": "Withdrawn",
      "type": "event"
    },
    {
      "inputs": [],
      "name": "PERCENTAGE_DENOMINATOR",
      "outputs": [
        {
          "internalType": "uint256",
          "name": "",
          "type": "uint256"
        }
      ],
      "stateMutability": "view",
      "type": "function"
    },
    {
      "inputs": [
        {
          "internalType": "address",
          "name": "user",
          "type": "address"
        },
        {
          "internalType": "uint8",
          "name": "poolId",
          "type": "uint8"
        }
      ],
      "name": "calculateProfit",
      "outputs": [
        {
          "internalType": "uint256",
          "name": "",
          "type": "uint256"
        }
      ],
      "stateMutability": "view",
      "type": "function"
    },
    {
      "inputs": [],
      "name": "owner",
      "outputs": [
        {
          "internalType": "address",
          "name": "",
          "type": "address"
        }
      ],
      "stateMutability": "view",
      "type": "function"
    },
    {
      "inputs": [
        {
          "internalType": "uint8",
          "name": "",
          "type": "uint8"
        }
      ],
      "name": "poolData",
      "outputs": [
        {
          "internalType": "uint256",
          "name": "duration",
          "type": "uint256"
        },
        {
          "internalType": "uint256",
          "name": "rewardRate",
          "type": "uint256"
        }
      ],
      "stateMutability": "view",
      "type": "function"
    },
    {
      "inputs": [
        {
          "internalType": "uint256",
          "name": "",
          "type": "uint256"
        }
      ],
      "name": "pools",
      "outputs": [
        {
          "internalType": "uint256",
          "name": "duration",
          "type": "uint256"
        },
        {
          "internalType": "uint256",
          "name": "rewardRate",
          "type": "uint256"
        }
      ],
      "stateMutability": "view",
      "type": "function"
    },
    {
      "inputs": [],
      "name": "renounceOwnership",
      "outputs": [],
      "stateMutability": "nonpayable",
      "type": "function"
    },
    {
      "inputs": [
        {
          "internalType": "uint256",
          "name": "_poolId",
          "type": "uint256"
        }
      ],
      "name": "showMyBalancesInPool",
      "outputs": [
        {
          "internalType": "uint256",
          "name": "",
          "type": "uint256"
        }
      ],
      "stateMutability": "view",
      "type": "function"
    },
    {
      "inputs": [
        {
          "internalType": "uint256",
          "name": "_amount",
          "type": "uint256"
        },
        {
          "internalType": "uint8",
          "name": "_poolId",
          "type": "uint8"
        }
      ],
      "name": "stake",
      "outputs": [],
      "stateMutability": "nonpayable",
      "type": "function"
    },
    {
      "inputs": [],
      "name": "stakingToken",
      "outputs": [
        {
          "internalType": "contract IERC20",
          "name": "",
          "type": "address"
        }
      ],
      "stateMutability": "view",
      "type": "function"
    },
    {
      "inputs": [
        {
          "internalType": "address",
          "name": "newOwner",
          "type": "address"
        }
      ],
      "name": "transferOwnership",
      "outputs": [],
      "stateMutability": "nonpayable",
      "type": "function"
    },
    {
      "inputs": [
        {
          "internalType": "uint8",
          "name": "_poolId",
          "type": "uint8"
        }
      ],
      "name": "withdrawAllAmount",
      "outputs": [],
      "stateMutability": "nonpayable",
      "type": "function"
    },
    {
      "inputs": [
        {
          "internalType": "uint8",
          "name": "_poolId",
          "type": "uint8"
        }
      ],
      "name": "withdrawProfit",
      "outputs": [],
      "stateMutability": "nonpayable",
      "type": "function"
    },
    {
      "inputs": [
        {
          "internalType": "uint256",
          "name": "amount",
          "type": "uint256"
        },
        {
          "internalType": "uint8",
          "name": "_poolId",
          "type": "uint8"
        }
      ],
      "name": "withdrawSpecificProfit",
      "outputs": [],
      "stateMutability": "nonpayable",
      "type": "function"
    }
  ],
  "bytecode": "0x60806040523480156200001157600080fd5b5062000032620000266200028d60201b60201c565b6200029560201b60201c565b600180819055506000604051620000499062000359565b604051809103906000f08015801562000066573d6000803e3d6000fd5b50905080600260006101000a81548173ffffffffffffffffffffffffffffffffffffffff021916908373ffffffffffffffffffffffffffffffffffffffff160217905550603c6005600060048110620000c457620000c362000367565b5b60050201600001819055506101f46005600060048110620000ea57620000e962000367565b5b6005020160010181905550607860056001600481106200010f576200010e62000367565b5b60050201600001819055506103e8600560016004811062000135576200013462000367565b5b600502016001018190555060f060056002600481106200015a576200015962000367565b5b6005020160000181905550611388600560026004811062000180576200017f62000367565b5b60050201600101819055506101686005600360048110620001a657620001a562000367565b5b60050201600001819055506117706005600360048110620001cc57620001cb62000367565b5b6005020160010181905550600260009054906101000a900473ffffffffffffffffffffffffffffffffffffffff1673ffffffffffffffffffffffffffffffffffffffff1663a9059cbb33683635c9adc5dea000006040518363ffffffff1660e01b81526004016200023f92919062000432565b6020604051808303816000875af11580156200025f573d6000803e3d6000fd5b505050506040513d601f19601f82011682018060405250810190620002859190620004a1565b5050620004d3565b600033905090565b60008060009054906101000a900473ffffffffffffffffffffffffffffffffffffffff169050816000806101000a81548173ffffffffffffffffffffffffffffffffffffffff021916908373ffffffffffffffffffffffffffffffffffffffff1602179055508173ffffffffffffffffffffffffffffffffffffffff168173ffffffffffffffffffffffffffffffffffffffff167f8be0079c531659141344cd1fd0a4f28419497f9722a3daafe3b4186f6b6457e060405160405180910390a35050565b611b17806200244b83390190565b7f4e487b7100000000000000000000000000000000000000000000000000000000600052603260045260246000fd5b600073ffffffffffffffffffffffffffffffffffffffff82169050919050565b6000620003c38262000396565b9050919050565b620003d581620003b6565b82525050565b6000819050919050565b6000819050919050565b6000819050919050565b60006200041a620004146200040e84620003db565b620003ef565b620003e5565b9050919050565b6200042c81620003f9565b82525050565b6000604082019050620004496000830185620003ca565b62000458602083018462000421565b9392505050565b600080fd5b60008115159050919050565b6200047b8162000464565b81146200048757600080fd5b50565b6000815190506200049b8162000470565b92915050565b600060208284031215620004ba57620004b96200045f565b5b6000620004ca848285016200048a565b91505092915050565b611f6880620004e36000396000f3fe608060405234801561001057600080fd5b50600436106100cf5760003560e01c80638da5cb5b1161008c578063ae06a14311610066578063ae06a143146101ff578063b3cd425414610230578063eb9e024f1461024e578063f2fde38b1461026a576100cf565b80638da5cb5b14610180578063a65eda081461019e578063ac4afa38146101ce576100cf565b806310087fb1146100d45780631512a42b146100f05780631c9a9d641461010c578063567349e41461013c578063715018a61461015857806372f702f314610162575b600080fd5b6100ee60048036038101906100e991906114a8565b610286565b005b61010a600480360381019061010591906114e8565b6106bb565b005b61012660048036038101906101219190611573565b6109c7565b60405161013391906115c2565b60405180910390f35b610156600480360381019061015191906114e8565b610c1f565b005b610160610eca565b005b61016a610ede565b604051610177919061163c565b60405180910390f35b610188610f04565b6040516101959190611666565b60405180910390f35b6101b860048036038101906101b39190611681565b610f2d565b6040516101c591906115c2565b60405180910390f35b6101e860048036038101906101e39190611681565b610f94565b6040516101f69291906116ae565b60405180910390f35b610219600480360381019061021491906114e8565b610fbe565b6040516102279291906116ae565b60405180910390f35b610238610fe2565b60405161024591906115c2565b60405180910390f35b610268600480360381019061026391906114a8565b610fe8565b005b610284600480360381019061027f91906116d7565b6111f5565b005b61028e611278565b60008160ff16101580156102a5575060048160ff16105b6102e4576040517f08c379a00000000000000000000000000000000000000000000000000000000081526004016102db90611761565b60405180910390fd5b60008211610327576040517f08c379a000000000000000000000000000000000000000000000000000000000815260040161031e906117cd565b60405180910390fd5b600060058260ff16600481106103405761033f6117ed565b5b60050201905082600260009054906101000a900473ffffffffffffffffffffffffffffffffffffffff1673ffffffffffffffffffffffffffffffffffffffff166370a08231336040518263ffffffff1660e01b81526004016103a29190611666565b602060405180830381865afa1580156103bf573d6000803e3d6000fd5b505050506040513d601f19601f820116820180604052508101906103e39190611831565b1015610424576040517f08c379a000000000000000000000000000000000000000000000000000000000815260040161041b906118aa565b60405180910390fd5b82600260009054906101000a900473ffffffffffffffffffffffffffffffffffffffff1673ffffffffffffffffffffffffffffffffffffffff1663dd62ed3e33306040518363ffffffff1660e01b81526004016104829291906118ca565b602060405180830381865afa15801561049f573d6000803e3d6000fd5b505050506040513d601f19601f820116820180604052508101906104c39190611831565b1015610504576040517f08c379a00000000000000000000000000000000000000000000000000000000081526004016104fb9061193f565b60405180910390fd5b600260009054906101000a900473ffffffffffffffffffffffffffffffffffffffff1673ffffffffffffffffffffffffffffffffffffffff166323b872dd3330866040518463ffffffff1660e01b81526004016105639392919061195f565b6020604051808303816000875af1158015610582573d6000803e3d6000fd5b505050506040513d601f19601f820116820180604052508101906105a691906119ce565b50828160020160003373ffffffffffffffffffffffffffffffffffffffff1673ffffffffffffffffffffffffffffffffffffffff16815260200190815260200160002060008282546105f89190611a2a565b92505081905550428160030160003373ffffffffffffffffffffffffffffffffffffffff1673ffffffffffffffffffffffffffffffffffffffff1681526020019081526020016000208190555082600460008282546106579190611a2a565b925050819055503373ffffffffffffffffffffffffffffffffffffffff167f8acf475137e0cd74ca7f611d16b1e6383ec9a9c71a8e5b85967781b9c7214d1184846040516106a6929190611a6d565b60405180910390a2506106b76112c7565b5050565b6106c3611278565b60008160ff16101580156106da575060048160ff16105b610719576040517f08c379a000000000000000000000000000000000000000000000000000000000815260040161071090611761565b60405180910390fd5b600060058260ff1660048110610732576107316117ed565b5b60050201905060008160020160003373ffffffffffffffffffffffffffffffffffffffff1673ffffffffffffffffffffffffffffffffffffffff168152602001908152602001600020549050600081116107c1576040517f08c379a00000000000000000000000000000000000000000000000000000000081526004016107b890611ae2565b60405180910390fd5b60008260030160003373ffffffffffffffffffffffffffffffffffffffff1673ffffffffffffffffffffffffffffffffffffffff16815260200190815260200160002054426108109190611b02565b905060008360000154821061082c5761082933866109c7565b90505b60008460020160003373ffffffffffffffffffffffffffffffffffffffff1673ffffffffffffffffffffffffffffffffffffffff1681526020019081526020016000208190555060008460030160003373ffffffffffffffffffffffffffffffffffffffff1673ffffffffffffffffffffffffffffffffffffffff16815260200190815260200160002081905550600260009054906101000a900473ffffffffffffffffffffffffffffffffffffffff1673ffffffffffffffffffffffffffffffffffffffff1663a9059cbb3383866109059190611a2a565b6040518363ffffffff1660e01b8152600401610922929190611b36565b6020604051808303816000875af1158015610941573d6000803e3d6000fd5b505050506040513d601f19601f8201168201806040525081019061096591906119ce565b503373ffffffffffffffffffffffffffffffffffffffff167f939e45c2a0bfec7a2bdfa3cb3e08e1bc7f8ba9dc5fe33aac70c75c949ebbb6248483886040516109b093929190611b5f565b60405180910390a2505050506109c46112c7565b50565b6000808260ff16101580156109df575060048260ff16105b610a1e576040517f08c379a0000000000000000000000000000000000000000000000000000000008152600401610a1590611761565b60405180910390fd5b600060058360ff1660048110610a3757610a366117ed565b5b60050201905060008160020160008673ffffffffffffffffffffffffffffffffffffffff1673ffffffffffffffffffffffffffffffffffffffff16815260200190815260200160002054905060008103610a9657600092505050610c19565b6000610b248360030160008873ffffffffffffffffffffffffffffffffffffffff1673ffffffffffffffffffffffffffffffffffffffff168152602001908152602001600020548460040160008973ffffffffffffffffffffffffffffffffffffffff1673ffffffffffffffffffffffffffffffffffffffff168152602001908152602001600020546112d0565b90506000429050600084600001548560030160008a73ffffffffffffffffffffffffffffffffffffffff1673ffffffffffffffffffffffffffffffffffffffff16815260200190815260200160002054610b7e9190611a2a565b9050808210610b8b578091505b60008383610b999190611b02565b9050600086600101549050600087600001549050600061271082670de0b6b3a764000085610bc79190611b96565b610bd19190611c07565b610bdb9190611c07565b90506000670de0b6b3a7640000898387610bf59190611b96565b610bff9190611b96565b610c099190611c07565b9050809a50505050505050505050505b92915050565b610c27611278565b60008160ff1610158015610c3e575060048160ff16105b610c7d576040517f08c379a0000000000000000000000000000000000000000000000000000000008152600401610c7490611761565b60405180910390fd5b6000610c8933836109c7565b905060008111610cce576040517f08c379a0000000000000000000000000000000000000000000000000000000008152600401610cc590611caa565b60405180910390fd5b600060058360ff1660048110610ce757610ce66117ed565b5b60050201905060008160030160003373ffffffffffffffffffffffffffffffffffffffff1673ffffffffffffffffffffffffffffffffffffffff1681526020019081526020016000205442610d3c9190611b02565b90508160000154811115610d85576040517f08c379a0000000000000000000000000000000000000000000000000000000008152600401610d7c90611d3c565b60405180910390fd5b428260040160003373ffffffffffffffffffffffffffffffffffffffff1673ffffffffffffffffffffffffffffffffffffffff16815260200190815260200160002081905550600260009054906101000a900473ffffffffffffffffffffffffffffffffffffffff1673ffffffffffffffffffffffffffffffffffffffff1663a9059cbb33856040518363ffffffff1660e01b8152600401610e28929190611b36565b6020604051808303816000875af1158015610e47573d6000803e3d6000fd5b505050506040513d601f19601f82011682018060405250810190610e6b91906119ce565b503373ffffffffffffffffffffffffffffffffffffffff167ffe150c1079587a96d20587da26df20f85f13fb428954657154bc16e4ec201f558486604051610eb4929190611a6d565b60405180910390a2505050610ec76112c7565b50565b610ed26112ea565b610edc6000611368565b565b600260009054906101000a900473ffffffffffffffffffffffffffffffffffffffff1681565b60008060009054906101000a900473ffffffffffffffffffffffffffffffffffffffff16905090565b60008060058360048110610f4457610f436117ed565b5b6005020190508060020160003373ffffffffffffffffffffffffffffffffffffffff1673ffffffffffffffffffffffffffffffffffffffff16815260200190815260200160002054915050919050565b60058160048110610fa457600080fd5b600502016000915090508060000154908060010154905082565b60036020528060005260406000206000915090508060000154908060010154905082565b61271081565b610ff0611278565b60008160ff1610158015611007575060048160ff16105b611046576040517f08c379a000000000000000000000000000000000000000000000000000000000815260040161103d90611761565b60405180910390fd5b600061105233836109c7565b905082811015611097576040517f08c379a000000000000000000000000000000000000000000000000000000000815260040161108e90611da8565b60405180910390fd5b4260058360ff16600481106110af576110ae6117ed565b5b6005020160040160003373ffffffffffffffffffffffffffffffffffffffff1673ffffffffffffffffffffffffffffffffffffffff16815260200190815260200160002081905550600260009054906101000a900473ffffffffffffffffffffffffffffffffffffffff1673ffffffffffffffffffffffffffffffffffffffff1663a9059cbb33856040518363ffffffff1660e01b8152600401611154929190611b36565b6020604051808303816000875af1158015611173573d6000803e3d6000fd5b505050506040513d601f19601f8201168201806040525081019061119791906119ce565b503373ffffffffffffffffffffffffffffffffffffffff167ffe150c1079587a96d20587da26df20f85f13fb428954657154bc16e4ec201f5584846040516111e0929190611a6d565b60405180910390a2506111f16112c7565b5050565b6111fd6112ea565b600073ffffffffffffffffffffffffffffffffffffffff168173ffffffffffffffffffffffffffffffffffffffff160361126c576040517f08c379a000000000000000000000000000000000000000000000000000000000815260040161126390611e3a565b60405180910390fd5b61127581611368565b50565b6002600154036112bd576040517f08c379a00000000000000000000000000000000000000000000000000000000081526004016112b490611ea6565b60405180910390fd5b6002600181905550565b60018081905550565b6000818310156112e057816112e2565b825b905092915050565b6112f261142c565b73ffffffffffffffffffffffffffffffffffffffff16611310610f04565b73ffffffffffffffffffffffffffffffffffffffff1614611366576040517f08c379a000000000000000000000000000000000000000000000000000000000815260040161135d90611f12565b60405180910390fd5b565b60008060009054906101000a900473ffffffffffffffffffffffffffffffffffffffff169050816000806101000a81548173ffffffffffffffffffffffffffffffffffffffff021916908373ffffffffffffffffffffffffffffffffffffffff1602179055508173ffffffffffffffffffffffffffffffffffffffff168173ffffffffffffffffffffffffffffffffffffffff167f8be0079c531659141344cd1fd0a4f28419497f9722a3daafe3b4186f6b6457e060405160405180910390a35050565b600033905090565b600080fd5b6000819050919050565b61144c81611439565b811461145757600080fd5b50565b60008135905061146981611443565b92915050565b600060ff82169050919050565b6114858161146f565b811461149057600080fd5b50565b6000813590506114a28161147c565b92915050565b600080604083850312156114bf576114be611434565b5b60006114cd8582860161145a565b92505060206114de85828601611493565b9150509250929050565b6000602082840312156114fe576114fd611434565b5b600061150c84828501611493565b91505092915050565b600073ffffffffffffffffffffffffffffffffffffffff82169050919050565b600061154082611515565b9050919050565b61155081611535565b811461155b57600080fd5b50565b60008135905061156d81611547565b92915050565b6000806040838503121561158a57611589611434565b5b60006115988582860161155e565b92505060206115a985828601611493565b9150509250929050565b6115bc81611439565b82525050565b60006020820190506115d760008301846115b3565b92915050565b6000819050919050565b60006116026115fd6115f884611515565b6115dd565b611515565b9050919050565b6000611614826115e7565b9050919050565b600061162682611609565b9050919050565b6116368161161b565b82525050565b6000602082019050611651600083018461162d565b92915050565b61166081611535565b82525050565b600060208201905061167b6000830184611657565b92915050565b60006020828403121561169757611696611434565b5b60006116a58482850161145a565b91505092915050565b60006040820190506116c360008301856115b3565b6116d060208301846115b3565b9392505050565b6000602082840312156116ed576116ec611434565b5b60006116fb8482850161155e565b91505092915050565b600082825260208201905092915050565b7f496e76616c696420706f6f6c2069640000000000000000000000000000000000600082015250565b600061174b600f83611704565b915061175682611715565b602082019050919050565b6000602082019050818103600083015261177a8161173e565b9050919050565b7f416d6f756e74206d7573742062652067726561746572207468616e2030000000600082015250565b60006117b7601d83611704565b91506117c282611781565b602082019050919050565b600060208201905081810360008301526117e6816117aa565b9050919050565b7f4e487b7100000000000000000000000000000000000000000000000000000000600052603260045260246000fd5b60008151905061182b81611443565b92915050565b60006020828403121561184757611846611434565b5b60006118558482850161181c565b91505092915050565b7f496e73756666696369656e742062616c616e6365000000000000000000000000600082015250565b6000611894601483611704565b915061189f8261185e565b602082019050919050565b600060208201905081810360008301526118c381611887565b9050919050565b60006040820190506118df6000830185611657565b6118ec6020830184611657565b9392505050565b7f496e73756666696369656e7420616c6c6f77616e636500000000000000000000600082015250565b6000611929601683611704565b9150611934826118f3565b602082019050919050565b600060208201905081810360008301526119588161191c565b9050919050565b60006060820190506119746000830186611657565b6119816020830185611657565b61198e60408301846115b3565b949350505050565b60008115159050919050565b6119ab81611996565b81146119b657600080fd5b50565b6000815190506119c8816119a2565b92915050565b6000602082840312156119e4576119e3611434565b5b60006119f2848285016119b9565b91505092915050565b7f4e487b7100000000000000000000000000000000000000000000000000000000600052601160045260246000fd5b6000611a3582611439565b9150611a4083611439565b9250828201905080821115611a5857611a576119fb565b5b92915050565b611a678161146f565b82525050565b6000604082019050611a8260008301856115b3565b611a8f6020830184611a5e565b9392505050565b7f4e6f2062616c616e636520746f20776974686472617700000000000000000000600082015250565b6000611acc601683611704565b9150611ad782611a96565b602082019050919050565b60006020820190508181036000830152611afb81611abf565b9050919050565b6000611b0d82611439565b9150611b1883611439565b9250828203905081811115611b3057611b2f6119fb565b5b92915050565b6000604082019050611b4b6000830185611657565b611b5860208301846115b3565b9392505050565b6000606082019050611b7460008301866115b3565b611b8160208301856115b3565b611b8e6040830184611a5e565b949350505050565b6000611ba182611439565b9150611bac83611439565b9250828202611bba81611439565b91508282048414831517611bd157611bd06119fb565b5b5092915050565b7f4e487b7100000000000000000000000000000000000000000000000000000000600052601260045260246000fd5b6000611c1282611439565b9150611c1d83611439565b925082611c2d57611c2c611bd8565b5b828204905092915050565b7f4e6f2070726f66697420617661696c61626c6520666f7220776974686472617760008201527f616c000000000000000000000000000000000000000000000000000000000000602082015250565b6000611c94602283611704565b9150611c9f82611c38565b604082019050919050565b60006020820190508181036000830152611cc381611c87565b9050919050565b7f506f6f6c206475726174696f6e20636f6d706c65746520752063616e2077697460008201527f6864726177616c20616c6c20616d6f756e740000000000000000000000000000602082015250565b6000611d26603283611704565b9150611d3182611cca565b604082019050919050565b60006020820190508181036000830152611d5581611d19565b9050919050565b7f546f6b656e5374616b696e673a204e6f7420656e6f7567682070726f66697400600082015250565b6000611d92601f83611704565b9150611d9d82611d5c565b602082019050919050565b60006020820190508181036000830152611dc181611d85565b9050919050565b7f4f776e61626c653a206e6577206f776e657220697320746865207a65726f206160008201527f6464726573730000000000000000000000000000000000000000000000000000602082015250565b6000611e24602683611704565b9150611e2f82611dc8565b604082019050919050565b60006020820190508181036000830152611e5381611e17565b9050919050565b7f5265656e7472616e637947756172643a207265656e7472616e742063616c6c00600082015250565b6000611e90601f83611704565b9150611e9b82611e5a565b602082019050919050565b60006020820190508181036000830152611ebf81611e83565b9050919050565b7f4f776e61626c653a2063616c6c6572206973206e6f7420746865206f776e6572600082015250565b6000611efc602083611704565b9150611f0782611ec6565b602082019050919050565b60006020820190508181036000830152611f2b81611eef565b905091905056fea2646970667358221220b198d45a80318deef9a3083d51e39854d067bcc272a57f98f36c94090d96f39764736f6c6343000818003360806040523480156200001157600080fd5b506040518060400160405280600c81526020017f546f6b656e5374616b696e6700000000000000000000000000000000000000008152506040518060400160405280600381526020017f545343000000000000000000000000000000000000000000000000000000000081525081600390816200008f9190620004e6565b508060049081620000a19190620004e6565b505050620000e633620000b9620000ec60201b60201c565b60ff16600a620000ca919062000750565b620f4240620000da9190620007a1565b620000f560201b60201c565b620008d8565b60006012905090565b600073ffffffffffffffffffffffffffffffffffffffff168273ffffffffffffffffffffffffffffffffffffffff160362000167576040517f08c379a00000000000000000000000000000000000000000000000000000000081526004016200015e906200084d565b60405180910390fd5b6200017b600083836200026260201b60201c565b80600260008282546200018f91906200086f565b92505081905550806000808473ffffffffffffffffffffffffffffffffffffffff1673ffffffffffffffffffffffffffffffffffffffff168152602001908152602001600020600082825401925050819055508173ffffffffffffffffffffffffffffffffffffffff16600073ffffffffffffffffffffffffffffffffffffffff167fddf252ad1be2c89b69c2b068fc378daa952ba7f163c4a11628f55a4df523b3ef83604051620002429190620008bb565b60405180910390a36200025e600083836200026760201b60201c565b5050565b505050565b505050565b600081519050919050565b7f4e487b7100000000000000000000000000000000000000000000000000000000600052604160045260246000fd5b7f4e487b7100000000000000000000000000000000000000000000000000000000600052602260045260246000fd5b60006002820490506001821680620002ee57607f821691505b602082108103620003045762000303620002a6565b5b50919050565b60008190508160005260206000209050919050565b60006020601f8301049050919050565b600082821b905092915050565b6000600883026200036e7fffffffffffffffffffffffffffffffffffffffffffffffffffffffffffffffff826200032f565b6200037a86836200032f565b95508019841693508086168417925050509392505050565b6000819050919050565b6000819050919050565b6000620003c7620003c1620003bb8462000392565b6200039c565b62000392565b9050919050565b6000819050919050565b620003e383620003a6565b620003fb620003f282620003ce565b8484546200033c565b825550505050565b600090565b6200041262000403565b6200041f818484620003d8565b505050565b5b8181101562000447576200043b60008262000408565b60018101905062000425565b5050565b601f821115620004965762000460816200030a565b6200046b846200031f565b810160208510156200047b578190505b620004936200048a856200031f565b83018262000424565b50505b505050565b600082821c905092915050565b6000620004bb600019846008026200049b565b1980831691505092915050565b6000620004d68383620004a8565b9150826002028217905092915050565b620004f1826200026c565b67ffffffffffffffff8111156200050d576200050c62000277565b5b620005198254620002d5565b620005268282856200044b565b600060209050601f8311600181146200055e576000841562000549578287015190505b620005558582620004c8565b865550620005c5565b601f1984166200056e866200030a565b60005b82811015620005985784890151825560018201915060208501945060208101905062000571565b86831015620005b85784890151620005b4601f891682620004a8565b8355505b6001600288020188555050505b505050505050565b7f4e487b7100000000000000000000000000000000000000000000000000000000600052601160045260246000fd5b60008160011c9050919050565b6000808291508390505b60018511156200065b57808604811115620006335762000632620005cd565b5b6001851615620006435780820291505b80810290506200065385620005fc565b945062000613565b94509492505050565b60008262000676576001905062000749565b8162000686576000905062000749565b81600181146200069f5760028114620006aa57620006e0565b600191505062000749565b60ff841115620006bf57620006be620005cd565b5b8360020a915084821115620006d957620006d8620005cd565b5b5062000749565b5060208310610133831016604e8410600b84101617156200071a5782820a905083811115620007145762000713620005cd565b5b62000749565b62000729848484600162000609565b92509050818404811115620007435762000742620005cd565b5b81810290505b9392505050565b60006200075d8262000392565b91506200076a8362000392565b9250620007997fffffffffffffffffffffffffffffffffffffffffffffffffffffffffffffffff848462000664565b905092915050565b6000620007ae8262000392565b9150620007bb8362000392565b9250828202620007cb8162000392565b91508282048414831517620007e557620007e4620005cd565b5b5092915050565b600082825260208201905092915050565b7f45524332303a206d696e7420746f20746865207a65726f206164647265737300600082015250565b600062000835601f83620007ec565b91506200084282620007fd565b602082019050919050565b60006020820190508181036000830152620008688162000826565b9050919050565b60006200087c8262000392565b9150620008898362000392565b9250828201905080821115620008a457620008a3620005cd565b5b92915050565b620008b58162000392565b82525050565b6000602082019050620008d26000830184620008aa565b92915050565b61122f80620008e86000396000f3fe608060405234801561001057600080fd5b50600436106100a95760003560e01c80633950935111610071578063395093511461016857806370a082311461019857806395d89b41146101c8578063a457c2d7146101e6578063a9059cbb14610216578063dd62ed3e14610246576100a9565b806306fdde03146100ae578063095ea7b3146100cc57806318160ddd146100fc57806323b872dd1461011a578063313ce5671461014a575b600080fd5b6100b6610276565b6040516100c39190610b0c565b60405180910390f35b6100e660048036038101906100e19190610bc7565b610308565b6040516100f39190610c22565b60405180910390f35b61010461032b565b6040516101119190610c4c565b60405180910390f35b610134600480360381019061012f9190610c67565b610335565b6040516101419190610c22565b60405180910390f35b610152610364565b60405161015f9190610cd6565b60405180910390f35b610182600480360381019061017d9190610bc7565b61036d565b60405161018f9190610c22565b60405180910390f35b6101b260048036038101906101ad9190610cf1565b6103a4565b6040516101bf9190610c4c565b60405180910390f35b6101d06103ec565b6040516101dd9190610b0c565b60405180910390f35b61020060048036038101906101fb9190610bc7565b61047e565b60405161020d9190610c22565b60405180910390f35b610230600480360381019061022b9190610bc7565b6104f5565b60405161023d9190610c22565b60405180910390f35b610260600480360381019061025b9190610d1e565b610518565b60405161026d9190610c4c565b60405180910390f35b60606003805461028590610d8d565b80601f01602080910402602001604051908101604052809291908181526020018280546102b190610d8d565b80156102fe5780601f106102d3576101008083540402835291602001916102fe565b820191906000526020600020905b8154815290600101906020018083116102e157829003601f168201915b5050505050905090565b60008061031361059f565b90506103208185856105a7565b600191505092915050565b6000600254905090565b60008061034061059f565b905061034d858285610770565b6103588585856107fc565b60019150509392505050565b60006012905090565b60008061037861059f565b905061039981858561038a8589610518565b6103949190610ded565b6105a7565b600191505092915050565b60008060008373ffffffffffffffffffffffffffffffffffffffff1673ffffffffffffffffffffffffffffffffffffffff168152602001908152602001600020549050919050565b6060600480546103fb90610d8d565b80601f016020809104026020016040519081016040528092919081815260200182805461042790610d8d565b80156104745780601f1061044957610100808354040283529160200191610474565b820191906000526020600020905b81548152906001019060200180831161045757829003601f168201915b5050505050905090565b60008061048961059f565b905060006104978286610518565b9050838110156104dc576040517f08c379a00000000000000000000000000000000000000000000000000000000081526004016104d390610e93565b60405180910390fd5b6104e982868684036105a7565b60019250505092915050565b60008061050061059f565b905061050d8185856107fc565b600191505092915050565b6000600160008473ffffffffffffffffffffffffffffffffffffffff1673ffffffffffffffffffffffffffffffffffffffff16815260200190815260200160002060008373ffffffffffffffffffffffffffffffffffffffff1673ffffffffffffffffffffffffffffffffffffffff16815260200190815260200160002054905092915050565b600033905090565b600073ffffffffffffffffffffffffffffffffffffffff168373ffffffffffffffffffffffffffffffffffffffff1603610616576040517f08c379a000000000000000000000000000000000000000000000000000000000815260040161060d90610f25565b60405180910390fd5b600073ffffffffffffffffffffffffffffffffffffffff168273ffffffffffffffffffffffffffffffffffffffff1603610685576040517f08c379a000000000000000000000000000000000000000000000000000000000815260040161067c90610fb7565b60405180910390fd5b80600160008573ffffffffffffffffffffffffffffffffffffffff1673ffffffffffffffffffffffffffffffffffffffff16815260200190815260200160002060008473ffffffffffffffffffffffffffffffffffffffff1673ffffffffffffffffffffffffffffffffffffffff168152602001908152602001600020819055508173ffffffffffffffffffffffffffffffffffffffff168373ffffffffffffffffffffffffffffffffffffffff167f8c5be1e5ebec7d5bd14f71427d1e84f3dd0314c0f7b2291e5b200ac8c7c3b925836040516107639190610c4c565b60405180910390a3505050565b600061077c8484610518565b90507fffffffffffffffffffffffffffffffffffffffffffffffffffffffffffffffff81146107f657818110156107e8576040517f08c379a00000000000000000000000000000000000000000000000000000000081526004016107df90611023565b60405180910390fd5b6107f584848484036105a7565b5b50505050565b600073ffffffffffffffffffffffffffffffffffffffff168373ffffffffffffffffffffffffffffffffffffffff160361086b576040517f08c379a0000000000000000000000000000000000000000000000000000000008152600401610862906110b5565b60405180910390fd5b600073ffffffffffffffffffffffffffffffffffffffff168273ffffffffffffffffffffffffffffffffffffffff16036108da576040517f08c379a00000000000000000000000000000000000000000000000000000000081526004016108d190611147565b60405180910390fd5b6108e5838383610a72565b60008060008573ffffffffffffffffffffffffffffffffffffffff1673ffffffffffffffffffffffffffffffffffffffff1681526020019081526020016000205490508181101561096b576040517f08c379a0000000000000000000000000000000000000000000000000000000008152600401610962906111d9565b60405180910390fd5b8181036000808673ffffffffffffffffffffffffffffffffffffffff1673ffffffffffffffffffffffffffffffffffffffff16815260200190815260200160002081905550816000808573ffffffffffffffffffffffffffffffffffffffff1673ffffffffffffffffffffffffffffffffffffffff168152602001908152602001600020600082825401925050819055508273ffffffffffffffffffffffffffffffffffffffff168473ffffffffffffffffffffffffffffffffffffffff167fddf252ad1be2c89b69c2b068fc378daa952ba7f163c4a11628f55a4df523b3ef84604051610a599190610c4c565b60405180910390a3610a6c848484610a77565b50505050565b505050565b505050565b600081519050919050565b600082825260208201905092915050565b60005b83811015610ab6578082015181840152602081019050610a9b565b60008484015250505050565b6000601f19601f8301169050919050565b6000610ade82610a7c565b610ae88185610a87565b9350610af8818560208601610a98565b610b0181610ac2565b840191505092915050565b60006020820190508181036000830152610b268184610ad3565b905092915050565b600080fd5b600073ffffffffffffffffffffffffffffffffffffffff82169050919050565b6000610b5e82610b33565b9050919050565b610b6e81610b53565b8114610b7957600080fd5b50565b600081359050610b8b81610b65565b92915050565b6000819050919050565b610ba481610b91565b8114610baf57600080fd5b50565b600081359050610bc181610b9b565b92915050565b60008060408385031215610bde57610bdd610b2e565b5b6000610bec85828601610b7c565b9250506020610bfd85828601610bb2565b9150509250929050565b60008115159050919050565b610c1c81610c07565b82525050565b6000602082019050610c376000830184610c13565b92915050565b610c4681610b91565b82525050565b6000602082019050610c616000830184610c3d565b92915050565b600080600060608486031215610c8057610c7f610b2e565b5b6000610c8e86828701610b7c565b9350506020610c9f86828701610b7c565b9250506040610cb086828701610bb2565b9150509250925092565b600060ff82169050919050565b610cd081610cba565b82525050565b6000602082019050610ceb6000830184610cc7565b92915050565b600060208284031215610d0757610d06610b2e565b5b6000610d1584828501610b7c565b91505092915050565b60008060408385031215610d3557610d34610b2e565b5b6000610d4385828601610b7c565b9250506020610d5485828601610b7c565b9150509250929050565b7f4e487b7100000000000000000000000000000000000000000000000000000000600052602260045260246000fd5b60006002820490506001821680610da557607f821691505b602082108103610db857610db7610d5e565b5b50919050565b7f4e487b7100000000000000000000000000000000000000000000000000000000600052601160045260246000fd5b6000610df882610b91565b9150610e0383610b91565b9250828201905080821115610e1b57610e1a610dbe565b5b92915050565b7f45524332303a2064656372656173656420616c6c6f77616e63652062656c6f7760008201527f207a65726f000000000000000000000000000000000000000000000000000000602082015250565b6000610e7d602583610a87565b9150610e8882610e21565b604082019050919050565b60006020820190508181036000830152610eac81610e70565b9050919050565b7f45524332303a20617070726f76652066726f6d20746865207a65726f2061646460008201527f7265737300000000000000000000000000000000000000000000000000000000602082015250565b6000610f0f602483610a87565b9150610f1a82610eb3565b604082019050919050565b60006020820190508181036000830152610f3e81610f02565b9050919050565b7f45524332303a20617070726f766520746f20746865207a65726f20616464726560008201527f7373000000000000000000000000000000000000000000000000000000000000602082015250565b6000610fa1602283610a87565b9150610fac82610f45565b604082019050919050565b60006020820190508181036000830152610fd081610f94565b9050919050565b7f45524332303a20696e73756666696369656e7420616c6c6f77616e6365000000600082015250565b600061100d601d83610a87565b915061101882610fd7565b602082019050919050565b6000602082019050818103600083015261103c81611000565b9050919050565b7f45524332303a207472616e736665722066726f6d20746865207a65726f20616460008201527f6472657373000000000000000000000000000000000000000000000000000000602082015250565b600061109f602583610a87565b91506110aa82611043565b604082019050919050565b600060208201905081810360008301526110ce81611092565b9050919050565b7f45524332303a207472616e7366657220746f20746865207a65726f206164647260008201527f6573730000000000000000000000000000000000000000000000000000000000602082015250565b6000611131602383610a87565b915061113c826110d5565b604082019050919050565b6000602082019050818103600083015261116081611124565b9050919050565b7f45524332303a207472616e7366657220616d6f756e742065786365656473206260008201527f616c616e63650000000000000000000000000000000000000000000000000000602082015250565b60006111c3602683610a87565b91506111ce82611167565b604082019050919050565b600060208201905081810360008301526111f2816111b6565b905091905056fea2646970667358221220bafee246c7c379a85f4b0ae76e6d69cd5228db27a80630a3462f827f37dd9ddb64736f6c63430008180033",
  "linkReferences": {},
  "deployedLinkReferences": {}
}