{
  "_format": "hh-sol-artifact-1",
  "contractName": "TokenStaking",
  "sourceName": "contracts/Lock.sol",
  "abi": [
    {
      "inputs": [],
      "stateMutability": "nonpayable",
      "type": "constructor"
    },
    {
      "anonymous": false,
      "inputs": [
        {
          "indexed": true,
          "internalType": "address",
          "name": "previousOwner",
          "type": "address"
        },
        {
          "indexed": true,
          "internalType": "address",
          "name": "newOwner",
          "type": "address"
        }
      ],
      "name": "OwnershipTransferred",
      "type": "event"
    },
    {
      "anonymous": false,
      "inputs": [
        {
          "indexed": true,
          "internalType": "address",
          "name": "user",
          "type": "address"
        },
        {
          "indexed": false,
          "internalType": "uint256",
          "name": "profit",
          "type": "uint256"
        },
        {
          "indexed": false,
          "internalType": "uint8",
          "name": "poolId",
          "type": "uint8"
        }
      ],
      "name": "ProfitWithdrawn",
      "type": "event"
    },
    {
      "anonymous": false,
      "inputs": [
        {
          "indexed": true,
          "internalType": "address",
          "name": "user",
          "type": "address"
        },
        {
          "indexed": false,
          "internalType": "uint256",
          "name": "amount",
          "type": "uint256"
        },
        {
          "indexed": false,
          "internalType": "uint8",
          "name": "poolId",
          "type": "uint8"
        }
      ],
      "name": "Staked",
      "type": "event"
    },
    {
      "anonymous": false,
      "inputs": [
        {
          "indexed": true,
          "internalType": "address",
          "name": "user",
          "type": "address"
        },
        {
          "indexed": false,
          "internalType": "uint256",
          "name": "amount",
          "type": "uint256"
        },
        {
          "indexed": false,
          "internalType": "uint256",
          "name": "reward",
          "type": "uint256"
        },
        {
          "indexed": false,
          "internalType": "uint8",
          "name": "poolId",
          "type": "uint8"
        }
      ],
      "name": "Withdrawn",
      "type": "event"
    },
    {
      "inputs": [],
      "name": "PERCENTAGE_DENOMINATOR",
      "outputs": [
        {
          "internalType": "uint256",
          "name": "",
          "type": "uint256"
        }
      ],
      "stateMutability": "view",
      "type": "function"
    },
    {
      "inputs": [
        {
          "internalType": "address",
          "name": "user",
          "type": "address"
        },
        {
          "internalType": "uint8",
          "name": "poolId",
          "type": "uint8"
        }
      ],
      "name": "calculateProfit",
      "outputs": [
        {
          "internalType": "uint256",
          "name": "",
          "type": "uint256"
        }
      ],
      "stateMutability": "view",
      "type": "function"
    },
    {
      "inputs": [],
      "name": "owner",
      "outputs": [
        {
          "internalType": "address",
          "name": "",
          "type": "address"
        }
      ],
      "stateMutability": "view",
      "type": "function"
    },
    {
      "inputs": [
        {
          "internalType": "uint8",
          "name": "",
          "type": "uint8"
        }
      ],
      "name": "poolData",
      "outputs": [
        {
          "internalType": "uint256",
          "name": "duration",
          "type": "uint256"
        },
        {
          "internalType": "uint256",
          "name": "rewardRate",
          "type": "uint256"
        }
      ],
      "stateMutability": "view",
      "type": "function"
    },
    {
      "inputs": [
        {
          "internalType": "uint256",
          "name": "",
          "type": "uint256"
        }
      ],
      "name": "pools",
      "outputs": [
        {
          "internalType": "uint256",
          "name": "duration",
          "type": "uint256"
        },
        {
          "internalType": "uint256",
          "name": "rewardRate",
          "type": "uint256"
        }
      ],
      "stateMutability": "view",
      "type": "function"
    },
    {
      "inputs": [],
      "name": "renounceOwnership",
      "outputs": [],
      "stateMutability": "nonpayable",
      "type": "function"
    },
    {
      "inputs": [
        {
          "internalType": "uint256",
          "name": "_amount",
          "type": "uint256"
        },
        {
          "internalType": "uint8",
          "name": "_poolId",
          "type": "uint8"
        }
      ],
      "name": "stake",
      "outputs": [],
      "stateMutability": "nonpayable",
      "type": "function"
    },
    {
      "inputs": [],
      "name": "stakingToken",
      "outputs": [
        {
          "internalType": "contract IERC20",
          "name": "",
          "type": "address"
        }
      ],
      "stateMutability": "view",
      "type": "function"
    },
    {
      "inputs": [
        {
          "internalType": "address",
          "name": "newOwner",
          "type": "address"
        }
      ],
      "name": "transferOwnership",
      "outputs": [],
      "stateMutability": "nonpayable",
      "type": "function"
    },
    {
      "inputs": [
        {
          "internalType": "uint8",
          "name": "_poolId",
          "type": "uint8"
        }
      ],
      "name": "withdraw",
      "outputs": [],
      "stateMutability": "nonpayable",
      "type": "function"
    },
    {
      "inputs": [
        {
          "internalType": "uint8",
          "name": "_poolId",
          "type": "uint8"
        }
      ],
      "name": "withdrawProfit",
      "outputs": [],
      "stateMutability": "nonpayable",
      "type": "function"
    },
    {
      "inputs": [
        {
          "internalType": "uint256",
          "name": "amount",
          "type": "uint256"
        },
        {
          "internalType": "uint8",
          "name": "_poolId",
          "type": "uint8"
        }
      ],
      "name": "withdrawSpecificProfit",
      "outputs": [],
      "stateMutability": "nonpayable",
      "type": "function"
    }
  ],
  "bytecode": "0x60806040523480156200001157600080fd5b5062000032620000266200029560201b60201c565b6200029d60201b60201c565b600180819055506000604051620000499062000361565b604051809103906000f08015801562000066573d6000803e3d6000fd5b50905080600260006101000a81548173ffffffffffffffffffffffffffffffffffffffff021916908373ffffffffffffffffffffffffffffffffffffffff16021790555062093a806005600060048110620000c657620000c56200036f565b5b600502016000018190555061023a6005600060048110620000ec57620000eb6200036f565b5b600502016001018190555062278d0060056001600481106200011357620001126200036f565b5b60050201600001819055506102b260056001600481106200013957620001386200036f565b5b60050201600101819055506276a700600560026004811062000160576200015f6200036f565b5b60050201600001819055506103d460056002600481106200018657620001856200036f565b5b60050201600101819055506301da9c006005600360048110620001ae57620001ad6200036f565b5b60050201600001819055506104b06005600360048110620001d457620001d36200036f565b5b6005020160010181905550600260009054906101000a900473ffffffffffffffffffffffffffffffffffffffff1673ffffffffffffffffffffffffffffffffffffffff1663a9059cbb33683635c9adc5dea000006040518363ffffffff1660e01b8152600401620002479291906200043a565b6020604051808303816000875af115801562000267573d6000803e3d6000fd5b505050506040513d601f19601f820116820180604052508101906200028d9190620004a9565b5050620004db565b600033905090565b60008060009054906101000a900473ffffffffffffffffffffffffffffffffffffffff169050816000806101000a81548173ffffffffffffffffffffffffffffffffffffffff021916908373ffffffffffffffffffffffffffffffffffffffff1602179055508173ffffffffffffffffffffffffffffffffffffffff168173ffffffffffffffffffffffffffffffffffffffff167f8be0079c531659141344cd1fd0a4f28419497f9722a3daafe3b4186f6b6457e060405160405180910390a35050565b611b17806200227283390190565b7f4e487b7100000000000000000000000000000000000000000000000000000000600052603260045260246000fd5b600073ffffffffffffffffffffffffffffffffffffffff82169050919050565b6000620003cb826200039e565b9050919050565b620003dd81620003be565b82525050565b6000819050919050565b6000819050919050565b6000819050919050565b6000620004226200041c6200041684620003e3565b620003f7565b620003ed565b9050919050565b620004348162000401565b82525050565b6000604082019050620004516000830185620003d2565b62000460602083018462000429565b9392505050565b600080fd5b60008115159050919050565b62000483816200046c565b81146200048f57600080fd5b50565b600081519050620004a38162000478565b92915050565b600060208284031215620004c257620004c162000467565b5b6000620004d28482850162000492565b91505092915050565b611d8780620004eb6000396000f3fe608060405234801561001057600080fd5b50600436106100b45760003560e01c8063ac4afa3811610071578063ac4afa3814610167578063ae06a14314610198578063b3cd4254146101c9578063c6ab5d90146101e7578063eb9e024f14610203578063f2fde38b1461021f576100b4565b806310087fb1146100b95780631c9a9d64146100d5578063567349e414610105578063715018a61461012157806372f702f31461012b5780638da5cb5b14610149575b600080fd5b6100d360048036038101906100ce9190611359565b61023b565b005b6100ef60048036038101906100ea91906113f7565b610670565b6040516100fc9190611446565b60405180910390f35b61011f600480360381019061011a9190611461565b61089e565b005b610129610ab0565b005b610133610ac4565b60405161014091906114ed565b60405180910390f35b610151610aea565b60405161015e9190611517565b60405180910390f35b610181600480360381019061017c9190611532565b610b13565b60405161018f92919061155f565b60405180910390f35b6101b260048036038101906101ad9190611461565b610b3d565b6040516101c092919061155f565b60405180910390f35b6101d1610b61565b6040516101de9190611446565b60405180910390f35b61020160048036038101906101fc9190611461565b610b66565b005b61021d60048036038101906102189190611359565b610e76565b005b61023960048036038101906102349190611588565b611083565b005b610243611106565b60008160ff161015801561025a575060048160ff16105b610299576040517f08c379a000000000000000000000000000000000000000000000000000000000815260040161029090611612565b60405180910390fd5b600082116102dc576040517f08c379a00000000000000000000000000000000000000000000000000000000081526004016102d39061167e565b60405180910390fd5b600060058260ff16600481106102f5576102f461169e565b5b60050201905082600260009054906101000a900473ffffffffffffffffffffffffffffffffffffffff1673ffffffffffffffffffffffffffffffffffffffff166370a08231336040518263ffffffff1660e01b81526004016103579190611517565b602060405180830381865afa158015610374573d6000803e3d6000fd5b505050506040513d601f19601f8201168201806040525081019061039891906116e2565b10156103d9576040517f08c379a00000000000000000000000000000000000000000000000000000000081526004016103d09061175b565b60405180910390fd5b82600260009054906101000a900473ffffffffffffffffffffffffffffffffffffffff1673ffffffffffffffffffffffffffffffffffffffff1663dd62ed3e33306040518363ffffffff1660e01b815260040161043792919061177b565b602060405180830381865afa158015610454573d6000803e3d6000fd5b505050506040513d601f19601f8201168201806040525081019061047891906116e2565b10156104b9576040517f08c379a00000000000000000000000000000000000000000000000000000000081526004016104b0906117f0565b60405180910390fd5b600260009054906101000a900473ffffffffffffffffffffffffffffffffffffffff1673ffffffffffffffffffffffffffffffffffffffff166323b872dd3330866040518463ffffffff1660e01b815260040161051893929190611810565b6020604051808303816000875af1158015610537573d6000803e3d6000fd5b505050506040513d601f19601f8201168201806040525081019061055b919061187f565b50828160020160003373ffffffffffffffffffffffffffffffffffffffff1673ffffffffffffffffffffffffffffffffffffffff16815260200190815260200160002060008282546105ad91906118db565b92505081905550428160030160003373ffffffffffffffffffffffffffffffffffffffff1673ffffffffffffffffffffffffffffffffffffffff16815260200190815260200160002081905550826004600082825461060c91906118db565b925050819055503373ffffffffffffffffffffffffffffffffffffffff167f8acf475137e0cd74ca7f611d16b1e6383ec9a9c71a8e5b85967781b9c7214d11848460405161065b92919061191e565b60405180910390a25061066c611155565b5050565b6000808260ff1610158015610688575060048260ff16105b6106c7576040517f08c379a00000000000000000000000000000000000000000000000000000000081526004016106be90611612565b60405180910390fd5b600060058360ff16600481106106e0576106df61169e565b5b60050201905060008160020160008673ffffffffffffffffffffffffffffffffffffffff1673ffffffffffffffffffffffffffffffffffffffff1681526020019081526020016000205490506000810361073f57600092505050610898565b60006107cd8360030160008873ffffffffffffffffffffffffffffffffffffffff1673ffffffffffffffffffffffffffffffffffffffff168152602001908152602001600020548460040160008973ffffffffffffffffffffffffffffffffffffffff1673ffffffffffffffffffffffffffffffffffffffff1681526020019081526020016000205461115e565b90506000429050600082826107e29190611947565b905060008560010154905060006301e1338090506000606482670de0b6b3a76400008561080f919061197b565b61081991906119ec565b61082391906119ec565b90506000670de0b6b3a764000088838761083d919061197b565b610847919061197b565b61085191906119ec565b9050886000015485101561087057809950505050505050505050610898565b6064896001015489610882919061197b565b61088c91906119ec565b99505050505050505050505b92915050565b6108a6611106565b60008160ff16101580156108bd575060048160ff16105b6108fc576040517f08c379a00000000000000000000000000000000000000000000000000000000081526004016108f390611612565b60405180910390fd5b60006109083383610670565b90506000811161094d576040517f08c379a000000000000000000000000000000000000000000000000000000000815260040161094490611a8f565b60405180910390fd5b600060058360ff16600481106109665761096561169e565b5b600502019050428160030160003373ffffffffffffffffffffffffffffffffffffffff1673ffffffffffffffffffffffffffffffffffffffff16815260200190815260200160002081905550600260009054906101000a900473ffffffffffffffffffffffffffffffffffffffff1673ffffffffffffffffffffffffffffffffffffffff1663a9059cbb33846040518363ffffffff1660e01b8152600401610a0f929190611aaf565b6020604051808303816000875af1158015610a2e573d6000803e3d6000fd5b505050506040513d601f19601f82011682018060405250810190610a52919061187f565b503373ffffffffffffffffffffffffffffffffffffffff167ffe150c1079587a96d20587da26df20f85f13fb428954657154bc16e4ec201f558385604051610a9b92919061191e565b60405180910390a25050610aad611155565b50565b610ab8611178565b610ac260006111f6565b565b600260009054906101000a900473ffffffffffffffffffffffffffffffffffffffff1681565b60008060009054906101000a900473ffffffffffffffffffffffffffffffffffffffff16905090565b60058160048110610b2357600080fd5b600502016000915090508060000154908060010154905082565b60036020528060005260406000206000915090508060000154908060010154905082565b606481565b610b6e611106565b60008160ff1610158015610b85575060048160ff16105b610bc4576040517f08c379a0000000000000000000000000000000000000000000000000000000008152600401610bbb90611612565b60405180910390fd5b600060058260ff1660048110610bdd57610bdc61169e565b5b60050201905060008160020160003373ffffffffffffffffffffffffffffffffffffffff1673ffffffffffffffffffffffffffffffffffffffff16815260200190815260200160002054905060008111610c6c576040517f08c379a0000000000000000000000000000000000000000000000000000000008152600401610c6390611b24565b60405180910390fd5b60008260030160003373ffffffffffffffffffffffffffffffffffffffff1673ffffffffffffffffffffffffffffffffffffffff1681526020019081526020016000205442610cbb9190611947565b9050600083600001548210610cdb57610cd88385600101546112ba565b90505b60008460020160003373ffffffffffffffffffffffffffffffffffffffff1673ffffffffffffffffffffffffffffffffffffffff1681526020019081526020016000208190555060008460030160003373ffffffffffffffffffffffffffffffffffffffff1673ffffffffffffffffffffffffffffffffffffffff16815260200190815260200160002081905550600260009054906101000a900473ffffffffffffffffffffffffffffffffffffffff1673ffffffffffffffffffffffffffffffffffffffff1663a9059cbb338386610db491906118db565b6040518363ffffffff1660e01b8152600401610dd1929190611aaf565b6020604051808303816000875af1158015610df0573d6000803e3d6000fd5b505050506040513d601f19601f82011682018060405250810190610e14919061187f565b503373ffffffffffffffffffffffffffffffffffffffff167f939e45c2a0bfec7a2bdfa3cb3e08e1bc7f8ba9dc5fe33aac70c75c949ebbb624848388604051610e5f93929190611b44565b60405180910390a250505050610e73611155565b50565b610e7e611106565b60008160ff1610158015610e95575060048160ff16105b610ed4576040517f08c379a0000000000000000000000000000000000000000000000000000000008152600401610ecb90611612565b60405180910390fd5b6000610ee03383610670565b905082811015610f25576040517f08c379a0000000000000000000000000000000000000000000000000000000008152600401610f1c90611bc7565b60405180910390fd5b4260058360ff1660048110610f3d57610f3c61169e565b5b6005020160040160003373ffffffffffffffffffffffffffffffffffffffff1673ffffffffffffffffffffffffffffffffffffffff16815260200190815260200160002081905550600260009054906101000a900473ffffffffffffffffffffffffffffffffffffffff1673ffffffffffffffffffffffffffffffffffffffff1663a9059cbb33856040518363ffffffff1660e01b8152600401610fe2929190611aaf565b6020604051808303816000875af1158015611001573d6000803e3d6000fd5b505050506040513d601f19601f82011682018060405250810190611025919061187f565b503373ffffffffffffffffffffffffffffffffffffffff167ffe150c1079587a96d20587da26df20f85f13fb428954657154bc16e4ec201f55848460405161106e92919061191e565b60405180910390a25061107f611155565b5050565b61108b611178565b600073ffffffffffffffffffffffffffffffffffffffff168173ffffffffffffffffffffffffffffffffffffffff16036110fa576040517f08c379a00000000000000000000000000000000000000000000000000000000081526004016110f190611c59565b60405180910390fd5b611103816111f6565b50565b60026001540361114b576040517f08c379a000000000000000000000000000000000000000000000000000000000815260040161114290611cc5565b60405180910390fd5b6002600181905550565b60018081905550565b60008183101561116e5781611170565b825b905092915050565b6111806112dd565b73ffffffffffffffffffffffffffffffffffffffff1661119e610aea565b73ffffffffffffffffffffffffffffffffffffffff16146111f4576040517f08c379a00000000000000000000000000000000000000000000000000000000081526004016111eb90611d31565b60405180910390fd5b565b60008060009054906101000a900473ffffffffffffffffffffffffffffffffffffffff169050816000806101000a81548173ffffffffffffffffffffffffffffffffffffffff021916908373ffffffffffffffffffffffffffffffffffffffff1602179055508173ffffffffffffffffffffffffffffffffffffffff168173ffffffffffffffffffffffffffffffffffffffff167f8be0079c531659141344cd1fd0a4f28419497f9722a3daafe3b4186f6b6457e060405160405180910390a35050565b600061271082846112cb919061197b565b6112d591906119ec565b905092915050565b600033905090565b600080fd5b6000819050919050565b6112fd816112ea565b811461130857600080fd5b50565b60008135905061131a816112f4565b92915050565b600060ff82169050919050565b61133681611320565b811461134157600080fd5b50565b6000813590506113538161132d565b92915050565b600080604083850312156113705761136f6112e5565b5b600061137e8582860161130b565b925050602061138f85828601611344565b9150509250929050565b600073ffffffffffffffffffffffffffffffffffffffff82169050919050565b60006113c482611399565b9050919050565b6113d4816113b9565b81146113df57600080fd5b50565b6000813590506113f1816113cb565b92915050565b6000806040838503121561140e5761140d6112e5565b5b600061141c858286016113e2565b925050602061142d85828601611344565b9150509250929050565b611440816112ea565b82525050565b600060208201905061145b6000830184611437565b92915050565b600060208284031215611477576114766112e5565b5b600061148584828501611344565b91505092915050565b6000819050919050565b60006114b36114ae6114a984611399565b61148e565b611399565b9050919050565b60006114c582611498565b9050919050565b60006114d7826114ba565b9050919050565b6114e7816114cc565b82525050565b600060208201905061150260008301846114de565b92915050565b611511816113b9565b82525050565b600060208201905061152c6000830184611508565b92915050565b600060208284031215611548576115476112e5565b5b60006115568482850161130b565b91505092915050565b60006040820190506115746000830185611437565b6115816020830184611437565b9392505050565b60006020828403121561159e5761159d6112e5565b5b60006115ac848285016113e2565b91505092915050565b600082825260208201905092915050565b7f496e76616c696420706f6f6c2069640000000000000000000000000000000000600082015250565b60006115fc600f836115b5565b9150611607826115c6565b602082019050919050565b6000602082019050818103600083015261162b816115ef565b9050919050565b7f416d6f756e74206d7573742062652067726561746572207468616e2030000000600082015250565b6000611668601d836115b5565b915061167382611632565b602082019050919050565b600060208201905081810360008301526116978161165b565b9050919050565b7f4e487b7100000000000000000000000000000000000000000000000000000000600052603260045260246000fd5b6000815190506116dc816112f4565b92915050565b6000602082840312156116f8576116f76112e5565b5b6000611706848285016116cd565b91505092915050565b7f496e73756666696369656e742062616c616e6365000000000000000000000000600082015250565b60006117456014836115b5565b91506117508261170f565b602082019050919050565b6000602082019050818103600083015261177481611738565b9050919050565b60006040820190506117906000830185611508565b61179d6020830184611508565b9392505050565b7f496e73756666696369656e7420616c6c6f77616e636500000000000000000000600082015250565b60006117da6016836115b5565b91506117e5826117a4565b602082019050919050565b60006020820190508181036000830152611809816117cd565b9050919050565b60006060820190506118256000830186611508565b6118326020830185611508565b61183f6040830184611437565b949350505050565b60008115159050919050565b61185c81611847565b811461186757600080fd5b50565b60008151905061187981611853565b92915050565b600060208284031215611895576118946112e5565b5b60006118a38482850161186a565b91505092915050565b7f4e487b7100000000000000000000000000000000000000000000000000000000600052601160045260246000fd5b60006118e6826112ea565b91506118f1836112ea565b9250828201905080821115611909576119086118ac565b5b92915050565b61191881611320565b82525050565b60006040820190506119336000830185611437565b611940602083018461190f565b9392505050565b6000611952826112ea565b915061195d836112ea565b9250828203905081811115611975576119746118ac565b5b92915050565b6000611986826112ea565b9150611991836112ea565b925082820261199f816112ea565b915082820484148315176119b6576119b56118ac565b5b5092915050565b7f4e487b7100000000000000000000000000000000000000000000000000000000600052601260045260246000fd5b60006119f7826112ea565b9150611a02836112ea565b925082611a1257611a116119bd565b5b828204905092915050565b7f4e6f2070726f66697420617661696c61626c6520666f7220776974686472617760008201527f616c000000000000000000000000000000000000000000000000000000000000602082015250565b6000611a796022836115b5565b9150611a8482611a1d565b604082019050919050565b60006020820190508181036000830152611aa881611a6c565b9050919050565b6000604082019050611ac46000830185611508565b611ad16020830184611437565b9392505050565b7f4e6f2062616c616e636520746f20776974686472617700000000000000000000600082015250565b6000611b0e6016836115b5565b9150611b1982611ad8565b602082019050919050565b60006020820190508181036000830152611b3d81611b01565b9050919050565b6000606082019050611b596000830186611437565b611b666020830185611437565b611b73604083018461190f565b949350505050565b7f546f6b656e5374616b696e673a204e6f7420656e6f7567682070726f66697400600082015250565b6000611bb1601f836115b5565b9150611bbc82611b7b565b602082019050919050565b60006020820190508181036000830152611be081611ba4565b9050919050565b7f4f776e61626c653a206e6577206f776e657220697320746865207a65726f206160008201527f6464726573730000000000000000000000000000000000000000000000000000602082015250565b6000611c436026836115b5565b9150611c4e82611be7565b604082019050919050565b60006020820190508181036000830152611c7281611c36565b9050919050565b7f5265656e7472616e637947756172643a207265656e7472616e742063616c6c00600082015250565b6000611caf601f836115b5565b9150611cba82611c79565b602082019050919050565b60006020820190508181036000830152611cde81611ca2565b9050919050565b7f4f776e61626c653a2063616c6c6572206973206e6f7420746865206f776e6572600082015250565b6000611d1b6020836115b5565b9150611d2682611ce5565b602082019050919050565b60006020820190508181036000830152611d4a81611d0e565b905091905056fea26469706673582212206598a6257417d0a486a266fcecee7a0398adae657e909de4ab275ada744a176164736f6c6343000818003360806040523480156200001157600080fd5b506040518060400160405280600c81526020017f546f6b656e5374616b696e6700000000000000000000000000000000000000008152506040518060400160405280600381526020017f545343000000000000000000000000000000000000000000000000000000000081525081600390816200008f9190620004e6565b508060049081620000a19190620004e6565b505050620000e633620000b9620000ec60201b60201c565b60ff16600a620000ca919062000750565b620f4240620000da9190620007a1565b620000f560201b60201c565b620008d8565b60006012905090565b600073ffffffffffffffffffffffffffffffffffffffff168273ffffffffffffffffffffffffffffffffffffffff160362000167576040517f08c379a00000000000000000000000000000000000000000000000000000000081526004016200015e906200084d565b60405180910390fd5b6200017b600083836200026260201b60201c565b80600260008282546200018f91906200086f565b92505081905550806000808473ffffffffffffffffffffffffffffffffffffffff1673ffffffffffffffffffffffffffffffffffffffff168152602001908152602001600020600082825401925050819055508173ffffffffffffffffffffffffffffffffffffffff16600073ffffffffffffffffffffffffffffffffffffffff167fddf252ad1be2c89b69c2b068fc378daa952ba7f163c4a11628f55a4df523b3ef83604051620002429190620008bb565b60405180910390a36200025e600083836200026760201b60201c565b5050565b505050565b505050565b600081519050919050565b7f4e487b7100000000000000000000000000000000000000000000000000000000600052604160045260246000fd5b7f4e487b7100000000000000000000000000000000000000000000000000000000600052602260045260246000fd5b60006002820490506001821680620002ee57607f821691505b602082108103620003045762000303620002a6565b5b50919050565b60008190508160005260206000209050919050565b60006020601f8301049050919050565b600082821b905092915050565b6000600883026200036e7fffffffffffffffffffffffffffffffffffffffffffffffffffffffffffffffff826200032f565b6200037a86836200032f565b95508019841693508086168417925050509392505050565b6000819050919050565b6000819050919050565b6000620003c7620003c1620003bb8462000392565b6200039c565b62000392565b9050919050565b6000819050919050565b620003e383620003a6565b620003fb620003f282620003ce565b8484546200033c565b825550505050565b600090565b6200041262000403565b6200041f818484620003d8565b505050565b5b8181101562000447576200043b60008262000408565b60018101905062000425565b5050565b601f821115620004965762000460816200030a565b6200046b846200031f565b810160208510156200047b578190505b620004936200048a856200031f565b83018262000424565b50505b505050565b600082821c905092915050565b6000620004bb600019846008026200049b565b1980831691505092915050565b6000620004d68383620004a8565b9150826002028217905092915050565b620004f1826200026c565b67ffffffffffffffff8111156200050d576200050c62000277565b5b620005198254620002d5565b620005268282856200044b565b600060209050601f8311600181146200055e576000841562000549578287015190505b620005558582620004c8565b865550620005c5565b601f1984166200056e866200030a565b60005b82811015620005985784890151825560018201915060208501945060208101905062000571565b86831015620005b85784890151620005b4601f891682620004a8565b8355505b6001600288020188555050505b505050505050565b7f4e487b7100000000000000000000000000000000000000000000000000000000600052601160045260246000fd5b60008160011c9050919050565b6000808291508390505b60018511156200065b57808604811115620006335762000632620005cd565b5b6001851615620006435780820291505b80810290506200065385620005fc565b945062000613565b94509492505050565b60008262000676576001905062000749565b8162000686576000905062000749565b81600181146200069f5760028114620006aa57620006e0565b600191505062000749565b60ff841115620006bf57620006be620005cd565b5b8360020a915084821115620006d957620006d8620005cd565b5b5062000749565b5060208310610133831016604e8410600b84101617156200071a5782820a905083811115620007145762000713620005cd565b5b62000749565b62000729848484600162000609565b92509050818404811115620007435762000742620005cd565b5b81810290505b9392505050565b60006200075d8262000392565b91506200076a8362000392565b9250620007997fffffffffffffffffffffffffffffffffffffffffffffffffffffffffffffffff848462000664565b905092915050565b6000620007ae8262000392565b9150620007bb8362000392565b9250828202620007cb8162000392565b91508282048414831517620007e557620007e4620005cd565b5b5092915050565b600082825260208201905092915050565b7f45524332303a206d696e7420746f20746865207a65726f206164647265737300600082015250565b600062000835601f83620007ec565b91506200084282620007fd565b602082019050919050565b60006020820190508181036000830152620008688162000826565b9050919050565b60006200087c8262000392565b9150620008898362000392565b9250828201905080821115620008a457620008a3620005cd565b5b92915050565b620008b58162000392565b82525050565b6000602082019050620008d26000830184620008aa565b92915050565b61122f80620008e86000396000f3fe608060405234801561001057600080fd5b50600436106100a95760003560e01c80633950935111610071578063395093511461016857806370a082311461019857806395d89b41146101c8578063a457c2d7146101e6578063a9059cbb14610216578063dd62ed3e14610246576100a9565b806306fdde03146100ae578063095ea7b3146100cc57806318160ddd146100fc57806323b872dd1461011a578063313ce5671461014a575b600080fd5b6100b6610276565b6040516100c39190610b0c565b60405180910390f35b6100e660048036038101906100e19190610bc7565b610308565b6040516100f39190610c22565b60405180910390f35b61010461032b565b6040516101119190610c4c565b60405180910390f35b610134600480360381019061012f9190610c67565b610335565b6040516101419190610c22565b60405180910390f35b610152610364565b60405161015f9190610cd6565b60405180910390f35b610182600480360381019061017d9190610bc7565b61036d565b60405161018f9190610c22565b60405180910390f35b6101b260048036038101906101ad9190610cf1565b6103a4565b6040516101bf9190610c4c565b60405180910390f35b6101d06103ec565b6040516101dd9190610b0c565b60405180910390f35b61020060048036038101906101fb9190610bc7565b61047e565b60405161020d9190610c22565b60405180910390f35b610230600480360381019061022b9190610bc7565b6104f5565b60405161023d9190610c22565b60405180910390f35b610260600480360381019061025b9190610d1e565b610518565b60405161026d9190610c4c565b60405180910390f35b60606003805461028590610d8d565b80601f01602080910402602001604051908101604052809291908181526020018280546102b190610d8d565b80156102fe5780601f106102d3576101008083540402835291602001916102fe565b820191906000526020600020905b8154815290600101906020018083116102e157829003601f168201915b5050505050905090565b60008061031361059f565b90506103208185856105a7565b600191505092915050565b6000600254905090565b60008061034061059f565b905061034d858285610770565b6103588585856107fc565b60019150509392505050565b60006012905090565b60008061037861059f565b905061039981858561038a8589610518565b6103949190610ded565b6105a7565b600191505092915050565b60008060008373ffffffffffffffffffffffffffffffffffffffff1673ffffffffffffffffffffffffffffffffffffffff168152602001908152602001600020549050919050565b6060600480546103fb90610d8d565b80601f016020809104026020016040519081016040528092919081815260200182805461042790610d8d565b80156104745780601f1061044957610100808354040283529160200191610474565b820191906000526020600020905b81548152906001019060200180831161045757829003601f168201915b5050505050905090565b60008061048961059f565b905060006104978286610518565b9050838110156104dc576040517f08c379a00000000000000000000000000000000000000000000000000000000081526004016104d390610e93565b60405180910390fd5b6104e982868684036105a7565b60019250505092915050565b60008061050061059f565b905061050d8185856107fc565b600191505092915050565b6000600160008473ffffffffffffffffffffffffffffffffffffffff1673ffffffffffffffffffffffffffffffffffffffff16815260200190815260200160002060008373ffffffffffffffffffffffffffffffffffffffff1673ffffffffffffffffffffffffffffffffffffffff16815260200190815260200160002054905092915050565b600033905090565b600073ffffffffffffffffffffffffffffffffffffffff168373ffffffffffffffffffffffffffffffffffffffff1603610616576040517f08c379a000000000000000000000000000000000000000000000000000000000815260040161060d90610f25565b60405180910390fd5b600073ffffffffffffffffffffffffffffffffffffffff168273ffffffffffffffffffffffffffffffffffffffff1603610685576040517f08c379a000000000000000000000000000000000000000000000000000000000815260040161067c90610fb7565b60405180910390fd5b80600160008573ffffffffffffffffffffffffffffffffffffffff1673ffffffffffffffffffffffffffffffffffffffff16815260200190815260200160002060008473ffffffffffffffffffffffffffffffffffffffff1673ffffffffffffffffffffffffffffffffffffffff168152602001908152602001600020819055508173ffffffffffffffffffffffffffffffffffffffff168373ffffffffffffffffffffffffffffffffffffffff167f8c5be1e5ebec7d5bd14f71427d1e84f3dd0314c0f7b2291e5b200ac8c7c3b925836040516107639190610c4c565b60405180910390a3505050565b600061077c8484610518565b90507fffffffffffffffffffffffffffffffffffffffffffffffffffffffffffffffff81146107f657818110156107e8576040517f08c379a00000000000000000000000000000000000000000000000000000000081526004016107df90611023565b60405180910390fd5b6107f584848484036105a7565b5b50505050565b600073ffffffffffffffffffffffffffffffffffffffff168373ffffffffffffffffffffffffffffffffffffffff160361086b576040517f08c379a0000000000000000000000000000000000000000000000000000000008152600401610862906110b5565b60405180910390fd5b600073ffffffffffffffffffffffffffffffffffffffff168273ffffffffffffffffffffffffffffffffffffffff16036108da576040517f08c379a00000000000000000000000000000000000000000000000000000000081526004016108d190611147565b60405180910390fd5b6108e5838383610a72565b60008060008573ffffffffffffffffffffffffffffffffffffffff1673ffffffffffffffffffffffffffffffffffffffff1681526020019081526020016000205490508181101561096b576040517f08c379a0000000000000000000000000000000000000000000000000000000008152600401610962906111d9565b60405180910390fd5b8181036000808673ffffffffffffffffffffffffffffffffffffffff1673ffffffffffffffffffffffffffffffffffffffff16815260200190815260200160002081905550816000808573ffffffffffffffffffffffffffffffffffffffff1673ffffffffffffffffffffffffffffffffffffffff168152602001908152602001600020600082825401925050819055508273ffffffffffffffffffffffffffffffffffffffff168473ffffffffffffffffffffffffffffffffffffffff167fddf252ad1be2c89b69c2b068fc378daa952ba7f163c4a11628f55a4df523b3ef84604051610a599190610c4c565b60405180910390a3610a6c848484610a77565b50505050565b505050565b505050565b600081519050919050565b600082825260208201905092915050565b60005b83811015610ab6578082015181840152602081019050610a9b565b60008484015250505050565b6000601f19601f8301169050919050565b6000610ade82610a7c565b610ae88185610a87565b9350610af8818560208601610a98565b610b0181610ac2565b840191505092915050565b60006020820190508181036000830152610b268184610ad3565b905092915050565b600080fd5b600073ffffffffffffffffffffffffffffffffffffffff82169050919050565b6000610b5e82610b33565b9050919050565b610b6e81610b53565b8114610b7957600080fd5b50565b600081359050610b8b81610b65565b92915050565b6000819050919050565b610ba481610b91565b8114610baf57600080fd5b50565b600081359050610bc181610b9b565b92915050565b60008060408385031215610bde57610bdd610b2e565b5b6000610bec85828601610b7c565b9250506020610bfd85828601610bb2565b9150509250929050565b60008115159050919050565b610c1c81610c07565b82525050565b6000602082019050610c376000830184610c13565b92915050565b610c4681610b91565b82525050565b6000602082019050610c616000830184610c3d565b92915050565b600080600060608486031215610c8057610c7f610b2e565b5b6000610c8e86828701610b7c565b9350506020610c9f86828701610b7c565b9250506040610cb086828701610bb2565b9150509250925092565b600060ff82169050919050565b610cd081610cba565b82525050565b6000602082019050610ceb6000830184610cc7565b92915050565b600060208284031215610d0757610d06610b2e565b5b6000610d1584828501610b7c565b91505092915050565b60008060408385031215610d3557610d34610b2e565b5b6000610d4385828601610b7c565b9250506020610d5485828601610b7c565b9150509250929050565b7f4e487b7100000000000000000000000000000000000000000000000000000000600052602260045260246000fd5b60006002820490506001821680610da557607f821691505b602082108103610db857610db7610d5e565b5b50919050565b7f4e487b7100000000000000000000000000000000000000000000000000000000600052601160045260246000fd5b6000610df882610b91565b9150610e0383610b91565b9250828201905080821115610e1b57610e1a610dbe565b5b92915050565b7f45524332303a2064656372656173656420616c6c6f77616e63652062656c6f7760008201527f207a65726f000000000000000000000000000000000000000000000000000000602082015250565b6000610e7d602583610a87565b9150610e8882610e21565b604082019050919050565b60006020820190508181036000830152610eac81610e70565b9050919050565b7f45524332303a20617070726f76652066726f6d20746865207a65726f2061646460008201527f7265737300000000000000000000000000000000000000000000000000000000602082015250565b6000610f0f602483610a87565b9150610f1a82610eb3565b604082019050919050565b60006020820190508181036000830152610f3e81610f02565b9050919050565b7f45524332303a20617070726f766520746f20746865207a65726f20616464726560008201527f7373000000000000000000000000000000000000000000000000000000000000602082015250565b6000610fa1602283610a87565b9150610fac82610f45565b604082019050919050565b60006020820190508181036000830152610fd081610f94565b9050919050565b7f45524332303a20696e73756666696369656e7420616c6c6f77616e6365000000600082015250565b600061100d601d83610a87565b915061101882610fd7565b602082019050919050565b6000602082019050818103600083015261103c81611000565b9050919050565b7f45524332303a207472616e736665722066726f6d20746865207a65726f20616460008201527f6472657373000000000000000000000000000000000000000000000000000000602082015250565b600061109f602583610a87565b91506110aa82611043565b604082019050919050565b600060208201905081810360008301526110ce81611092565b9050919050565b7f45524332303a207472616e7366657220746f20746865207a65726f206164647260008201527f6573730000000000000000000000000000000000000000000000000000000000602082015250565b6000611131602383610a87565b915061113c826110d5565b604082019050919050565b6000602082019050818103600083015261116081611124565b9050919050565b7f45524332303a207472616e7366657220616d6f756e742065786365656473206260008201527f616c616e63650000000000000000000000000000000000000000000000000000602082015250565b60006111c3602683610a87565b91506111ce82611167565b604082019050919050565b600060208201905081810360008301526111f2816111b6565b905091905056fea26469706673582212205466e08f5a7ca7f8f4a9b66c113258166e6a561e1a614ca7d81113a6a6689b9464736f6c63430008180033",
  "linkReferences": {},
  "deployedLinkReferences": {}
}