{
  "_format": "hh-sol-artifact-1",
  "contractName": "TokenStaking",
  "sourceName": "contracts/TokenStaking.sol",
  "abi": [
    {
      "inputs": [],
      "stateMutability": "nonpayable",
      "type": "constructor"
    },
    {
      "anonymous": false,
      "inputs": [
        {
          "indexed": true,
          "internalType": "address",
          "name": "previousOwner",
          "type": "address"
        },
        {
          "indexed": true,
          "internalType": "address",
          "name": "newOwner",
          "type": "address"
        }
      ],
      "name": "OwnershipTransferred",
      "type": "event"
    },
    {
      "anonymous": false,
      "inputs": [
        {
          "indexed": true,
          "internalType": "address",
          "name": "user",
          "type": "address"
        },
        {
          "indexed": false,
          "internalType": "uint256",
          "name": "profit",
          "type": "uint256"
        },
        {
          "indexed": false,
          "internalType": "uint8",
          "name": "poolId",
          "type": "uint8"
        }
      ],
      "name": "ProfitWithdrawn",
      "type": "event"
    },
    {
      "anonymous": false,
      "inputs": [
        {
          "indexed": true,
          "internalType": "address",
          "name": "user",
          "type": "address"
        },
        {
          "indexed": false,
          "internalType": "uint256",
          "name": "amount",
          "type": "uint256"
        },
        {
          "indexed": false,
          "internalType": "uint8",
          "name": "poolId",
          "type": "uint8"
        }
      ],
      "name": "Staked",
      "type": "event"
    },
    {
      "anonymous": false,
      "inputs": [
        {
          "indexed": true,
          "internalType": "address",
          "name": "user",
          "type": "address"
        },
        {
          "indexed": false,
          "internalType": "uint256",
          "name": "amount",
          "type": "uint256"
        },
        {
          "indexed": false,
          "internalType": "uint256",
          "name": "reward",
          "type": "uint256"
        },
        {
          "indexed": false,
          "internalType": "uint8",
          "name": "poolId",
          "type": "uint8"
        }
      ],
      "name": "Withdrawn",
      "type": "event"
    },
    {
      "inputs": [],
      "name": "PERCENTAGE_DENOMINATOR",
      "outputs": [
        {
          "internalType": "uint256",
          "name": "",
          "type": "uint256"
        }
      ],
      "stateMutability": "view",
      "type": "function"
    },
    {
      "inputs": [
        {
          "internalType": "address",
          "name": "referrer",
          "type": "address"
        }
      ],
      "name": "addReferral",
      "outputs": [],
      "stateMutability": "nonpayable",
      "type": "function"
    },
    {
      "inputs": [
        {
          "internalType": "address",
          "name": "user",
          "type": "address"
        },
        {
          "internalType": "uint8",
          "name": "poolId",
          "type": "uint8"
        }
      ],
      "name": "calculateProfit",
      "outputs": [
        {
          "internalType": "uint256",
          "name": "",
          "type": "uint256"
        }
      ],
      "stateMutability": "view",
      "type": "function"
    },
    {
      "inputs": [],
      "name": "owner",
      "outputs": [
        {
          "internalType": "address",
          "name": "",
          "type": "address"
        }
      ],
      "stateMutability": "view",
      "type": "function"
    },
    {
      "inputs": [
        {
          "internalType": "uint8",
          "name": "",
          "type": "uint8"
        }
      ],
      "name": "poolData",
      "outputs": [
        {
          "internalType": "uint256",
          "name": "duration",
          "type": "uint256"
        },
        {
          "internalType": "uint256",
          "name": "rewardRate",
          "type": "uint256"
        }
      ],
      "stateMutability": "view",
      "type": "function"
    },
    {
      "inputs": [
        {
          "internalType": "uint256",
          "name": "",
          "type": "uint256"
        }
      ],
      "name": "pools",
      "outputs": [
        {
          "internalType": "uint256",
          "name": "duration",
          "type": "uint256"
        },
        {
          "internalType": "uint256",
          "name": "rewardRate",
          "type": "uint256"
        }
      ],
      "stateMutability": "view",
      "type": "function"
    },
    {
      "inputs": [
        {
          "internalType": "address",
          "name": "",
          "type": "address"
        },
        {
          "internalType": "uint256",
          "name": "",
          "type": "uint256"
        }
      ],
      "name": "referrals",
      "outputs": [
        {
          "internalType": "address",
          "name": "",
          "type": "address"
        }
      ],
      "stateMutability": "view",
      "type": "function"
    },
    {
      "inputs": [
        {
          "internalType": "address",
          "name": "",
          "type": "address"
        }
      ],
      "name": "referredBy",
      "outputs": [
        {
          "internalType": "address",
          "name": "",
          "type": "address"
        }
      ],
      "stateMutability": "view",
      "type": "function"
    },
    {
      "inputs": [],
      "name": "renounceOwnership",
      "outputs": [],
      "stateMutability": "nonpayable",
      "type": "function"
    },
    {
      "inputs": [
        {
          "internalType": "address",
          "name": "_addr",
          "type": "address"
        },
        {
          "internalType": "uint256",
          "name": "_poolId",
          "type": "uint256"
        }
      ],
      "name": "showMyBalancesInPool",
      "outputs": [
        {
          "internalType": "uint256",
          "name": "",
          "type": "uint256"
        }
      ],
      "stateMutability": "view",
      "type": "function"
    },
    {
      "inputs": [
        {
          "internalType": "uint256",
          "name": "_amount",
          "type": "uint256"
        },
        {
          "internalType": "uint8",
          "name": "_poolId",
          "type": "uint8"
        }
      ],
      "name": "stake",
      "outputs": [],
      "stateMutability": "nonpayable",
      "type": "function"
    },
    {
      "inputs": [],
      "name": "stakingToken",
      "outputs": [
        {
          "internalType": "contract IERC20",
          "name": "",
          "type": "address"
        }
      ],
      "stateMutability": "view",
      "type": "function"
    },
    {
      "inputs": [
        {
          "internalType": "address",
          "name": "newOwner",
          "type": "address"
        }
      ],
      "name": "transferOwnership",
      "outputs": [],
      "stateMutability": "nonpayable",
      "type": "function"
    },
    {
      "inputs": [
        {
          "internalType": "address",
          "name": "",
          "type": "address"
        }
      ],
      "name": "validForReferrer",
      "outputs": [
        {
          "internalType": "bool",
          "name": "",
          "type": "bool"
        }
      ],
      "stateMutability": "view",
      "type": "function"
    },
    {
      "inputs": [
        {
          "internalType": "uint8",
          "name": "_poolId",
          "type": "uint8"
        }
      ],
      "name": "withdrawAllAmount",
      "outputs": [],
      "stateMutability": "nonpayable",
      "type": "function"
    },
    {
      "inputs": [
        {
          "internalType": "uint8",
          "name": "_poolId",
          "type": "uint8"
        }
      ],
      "name": "withdrawProfit",
      "outputs": [],
      "stateMutability": "nonpayable",
      "type": "function"
    },
    {
      "inputs": [
        {
          "internalType": "uint256",
          "name": "amount",
          "type": "uint256"
        },
        {
          "internalType": "uint8",
          "name": "_poolId",
          "type": "uint8"
        }
      ],
      "name": "withdrawSpecificProfit",
      "outputs": [],
      "stateMutability": "nonpayable",
      "type": "function"
    }
  ],
  "bytecode": "0x60806040523480156200001157600080fd5b5062000032620000266200028d60201b60201c565b6200029560201b60201c565b600180819055506000604051620000499062000359565b604051809103906000f08015801562000066573d6000803e3d6000fd5b50905080600260006101000a81548173ffffffffffffffffffffffffffffffffffffffff021916908373ffffffffffffffffffffffffffffffffffffffff160217905550603c6008600060048110620000c457620000c362000367565b5b60050201600001819055506101f46008600060048110620000ea57620000e962000367565b5b6005020160010181905550607860086001600481106200010f576200010e62000367565b5b60050201600001819055506103e8600860016004811062000135576200013462000367565b5b600502016001018190555060f060086002600481106200015a576200015962000367565b5b6005020160000181905550611388600860026004811062000180576200017f62000367565b5b60050201600101819055506101686008600360048110620001a657620001a562000367565b5b60050201600001819055506117706008600360048110620001cc57620001cb62000367565b5b6005020160010181905550600260009054906101000a900473ffffffffffffffffffffffffffffffffffffffff1673ffffffffffffffffffffffffffffffffffffffff1663a9059cbb33683635c9adc5dea000006040518363ffffffff1660e01b81526004016200023f92919062000432565b6020604051808303816000875af11580156200025f573d6000803e3d6000fd5b505050506040513d601f19601f82011682018060405250810190620002859190620004a1565b5050620004d3565b600033905090565b60008060009054906101000a900473ffffffffffffffffffffffffffffffffffffffff169050816000806101000a81548173ffffffffffffffffffffffffffffffffffffffff021916908373ffffffffffffffffffffffffffffffffffffffff1602179055508173ffffffffffffffffffffffffffffffffffffffff168173ffffffffffffffffffffffffffffffffffffffff167f8be0079c531659141344cd1fd0a4f28419497f9722a3daafe3b4186f6b6457e060405160405180910390a35050565b611b17806200343483390190565b7f4e487b7100000000000000000000000000000000000000000000000000000000600052603260045260246000fd5b600073ffffffffffffffffffffffffffffffffffffffff82169050919050565b6000620003c38262000396565b9050919050565b620003d581620003b6565b82525050565b6000819050919050565b6000819050919050565b6000819050919050565b60006200041a620004146200040e84620003db565b620003ef565b620003e5565b9050919050565b6200042c81620003f9565b82525050565b6000604082019050620004496000830185620003ca565b62000458602083018462000421565b9392505050565b600080fd5b60008115159050919050565b6200047b8162000464565b81146200048757600080fd5b50565b6000815190506200049b8162000470565b92915050565b600060208284031215620004ba57620004b96200045f565b5b6000620004ca848285016200048a565b91505092915050565b612f5180620004e36000396000f3fe608060405234801561001057600080fd5b506004361061010b5760003560e01c8063a90f8e9a116100a2578063e697b5d811610071578063e697b5d8146102ba578063e8aca46a146102ea578063eb9e024f14610306578063f2fde38b14610322578063f39d67be1461033e5761010b565b8063a90f8e9a1461020a578063ac4afa381461023a578063ae06a1431461026b578063b3cd42541461029c5761010b565b8063567349e4116100de578063567349e4146101a8578063715018a6146101c457806372f702f3146101ce5780638da5cb5b146101ec5761010b565b806310087fb1146101105780631512a42b1461012c5780631c9a9d64146101485780633edaa34b14610178575b600080fd5b61012a60048036038101906101259190612233565b61036e565b005b61014660048036038101906101419190612273565b6107fb565b005b610162600480360381019061015d91906122fe565b610f12565b60405161016f919061234d565b60405180910390f35b610192600480360381019061018d9190612368565b61116a565b60405161019f919061234d565b60405180910390f35b6101c260048036038101906101bd9190612273565b6111d2565b005b6101cc611888565b005b6101d661189c565b6040516101e39190612407565b60405180910390f35b6101f46118c2565b6040516102019190612431565b60405180910390f35b610224600480360381019061021f919061244c565b6118eb565b6040516102319190612431565b60405180910390f35b610254600480360381019061024f9190612479565b61191e565b6040516102629291906124a6565b60405180910390f35b61028560048036038101906102809190612273565b611948565b6040516102939291906124a6565b60405180910390f35b6102a461196c565b6040516102b1919061234d565b60405180910390f35b6102d460048036038101906102cf9190612368565b611972565b6040516102e19190612431565b60405180910390f35b61030460048036038101906102ff919061244c565b6119c0565b005b610320600480360381019061031b9190612233565b611d53565b005b61033c6004803603810190610337919061244c565b611f60565b005b6103586004803603810190610353919061244c565b611fe3565b60405161036591906124ea565b60405180910390f35b610376612003565b60008160ff161015801561038d575060048160ff16105b6103cc576040517f08c379a00000000000000000000000000000000000000000000000000000000081526004016103c390612562565b60405180910390fd5b6000821161040f576040517f08c379a0000000000000000000000000000000000000000000000000000000008152600401610406906125ce565b60405180910390fd5b600060088260ff1660048110610428576104276125ee565b5b60050201905082600260009054906101000a900473ffffffffffffffffffffffffffffffffffffffff1673ffffffffffffffffffffffffffffffffffffffff166370a08231336040518263ffffffff1660e01b815260040161048a9190612431565b602060405180830381865afa1580156104a7573d6000803e3d6000fd5b505050506040513d601f19601f820116820180604052508101906104cb9190612632565b101561050c576040517f08c379a0000000000000000000000000000000000000000000000000000000008152600401610503906126ab565b60405180910390fd5b82600260009054906101000a900473ffffffffffffffffffffffffffffffffffffffff1673ffffffffffffffffffffffffffffffffffffffff1663dd62ed3e33306040518363ffffffff1660e01b815260040161056a9291906126cb565b602060405180830381865afa158015610587573d6000803e3d6000fd5b505050506040513d601f19601f820116820180604052508101906105ab9190612632565b10156105ec576040517f08c379a00000000000000000000000000000000000000000000000000000000081526004016105e390612740565b60405180910390fd5b6001600360003373ffffffffffffffffffffffffffffffffffffffff1673ffffffffffffffffffffffffffffffffffffffff16815260200190815260200160002060006101000a81548160ff021916908315150217905550600260009054906101000a900473ffffffffffffffffffffffffffffffffffffffff1673ffffffffffffffffffffffffffffffffffffffff166323b872dd3330866040518463ffffffff1660e01b81526004016106a393929190612760565b6020604051808303816000875af11580156106c2573d6000803e3d6000fd5b505050506040513d601f19601f820116820180604052508101906106e691906127c3565b50828160020160003373ffffffffffffffffffffffffffffffffffffffff1673ffffffffffffffffffffffffffffffffffffffff1681526020019081526020016000206000828254610738919061281f565b92505081905550428160030160003373ffffffffffffffffffffffffffffffffffffffff1673ffffffffffffffffffffffffffffffffffffffff168152602001908152602001600020819055508260076000828254610797919061281f565b925050819055503373ffffffffffffffffffffffffffffffffffffffff167f8acf475137e0cd74ca7f611d16b1e6383ec9a9c71a8e5b85967781b9c7214d1184846040516107e6929190612862565b60405180910390a2506107f7612052565b5050565b610803612003565b60008160ff161015801561081a575060048160ff16105b610859576040517f08c379a000000000000000000000000000000000000000000000000000000000815260040161085090612562565b60405180910390fd5b600060088260ff1660048110610872576108716125ee565b5b60050201905060008160020160003373ffffffffffffffffffffffffffffffffffffffff1673ffffffffffffffffffffffffffffffffffffffff16815260200190815260200160002054905060008111610901576040517f08c379a00000000000000000000000000000000000000000000000000000000081526004016108f8906128d7565b60405180910390fd5b60008260030160003373ffffffffffffffffffffffffffffffffffffffff1673ffffffffffffffffffffffffffffffffffffffff168152602001908152602001600020544261095091906128f7565b905060008360000154821061096c576109693386610f12565b90505b6000606460058361097d919061292b565b610987919061299c565b90506000606460038461099a919061292b565b6109a4919061299c565b9050600060646001856109b7919061292b565b6109c1919061299c565b90506000600460003373ffffffffffffffffffffffffffffffffffffffff1673ffffffffffffffffffffffffffffffffffffffff16815260200190815260200160002060009054906101000a900473ffffffffffffffffffffffffffffffffffffffff1690506000600460008373ffffffffffffffffffffffffffffffffffffffff1673ffffffffffffffffffffffffffffffffffffffff16815260200190815260200160002060009054906101000a900473ffffffffffffffffffffffffffffffffffffffff1690506000600460008373ffffffffffffffffffffffffffffffffffffffff1673ffffffffffffffffffffffffffffffffffffffff16815260200190815260200160002060009054906101000a900473ffffffffffffffffffffffffffffffffffffffff169050600073ffffffffffffffffffffffffffffffffffffffff168373ffffffffffffffffffffffffffffffffffffffff1614610bc557600260009054906101000a900473ffffffffffffffffffffffffffffffffffffffff1673ffffffffffffffffffffffffffffffffffffffff1663a9059cbb84886040518363ffffffff1660e01b8152600401610b809291906129cd565b6020604051808303816000875af1158015610b9f573d6000803e3d6000fd5b505050506040513d601f19601f82011682018060405250810190610bc391906127c3565b505b600073ffffffffffffffffffffffffffffffffffffffff168273ffffffffffffffffffffffffffffffffffffffff1614610c9b57600260009054906101000a900473ffffffffffffffffffffffffffffffffffffffff1673ffffffffffffffffffffffffffffffffffffffff1663a9059cbb83876040518363ffffffff1660e01b8152600401610c569291906129cd565b6020604051808303816000875af1158015610c75573d6000803e3d6000fd5b505050506040513d601f19601f82011682018060405250810190610c9991906127c3565b505b600073ffffffffffffffffffffffffffffffffffffffff168173ffffffffffffffffffffffffffffffffffffffff1614610d7157600260009054906101000a900473ffffffffffffffffffffffffffffffffffffffff1673ffffffffffffffffffffffffffffffffffffffff1663a9059cbb82866040518363ffffffff1660e01b8152600401610d2c9291906129cd565b6020604051808303816000875af1158015610d4b573d6000803e3d6000fd5b505050506040513d601f19601f82011682018060405250810190610d6f91906127c3565b505b60008a60020160003373ffffffffffffffffffffffffffffffffffffffff1673ffffffffffffffffffffffffffffffffffffffff1681526020019081526020016000208190555060008a60030160003373ffffffffffffffffffffffffffffffffffffffff1673ffffffffffffffffffffffffffffffffffffffff16815260200190815260200160002081905550600260009054906101000a900473ffffffffffffffffffffffffffffffffffffffff1673ffffffffffffffffffffffffffffffffffffffff1663a9059cbb33898c610e4a919061281f565b6040518363ffffffff1660e01b8152600401610e679291906129cd565b6020604051808303816000875af1158015610e86573d6000803e3d6000fd5b505050506040513d601f19601f82011682018060405250810190610eaa91906127c3565b503373ffffffffffffffffffffffffffffffffffffffff167f939e45c2a0bfec7a2bdfa3cb3e08e1bc7f8ba9dc5fe33aac70c75c949ebbb6248a898e604051610ef5939291906129f6565b60405180910390a250505050505050505050610f0f612052565b50565b6000808260ff1610158015610f2a575060048260ff16105b610f69576040517f08c379a0000000000000000000000000000000000000000000000000000000008152600401610f6090612562565b60405180910390fd5b600060088360ff1660048110610f8257610f816125ee565b5b60050201905060008160020160008673ffffffffffffffffffffffffffffffffffffffff1673ffffffffffffffffffffffffffffffffffffffff16815260200190815260200160002054905060008103610fe157600092505050611164565b600061106f8360030160008873ffffffffffffffffffffffffffffffffffffffff1673ffffffffffffffffffffffffffffffffffffffff168152602001908152602001600020548460040160008973ffffffffffffffffffffffffffffffffffffffff1673ffffffffffffffffffffffffffffffffffffffff1681526020019081526020016000205461205b565b90506000429050600084600001548560030160008a73ffffffffffffffffffffffffffffffffffffffff1673ffffffffffffffffffffffffffffffffffffffff168152602001908152602001600020546110c9919061281f565b90508082106110d6578091505b600083836110e491906128f7565b9050600086600101549050600087600001549050600061271082670de0b6b3a764000085611112919061292b565b61111c919061299c565b611126919061299c565b90506000670de0b6b3a7640000898387611140919061292b565b61114a919061292b565b611154919061299c565b9050809a50505050505050505050505b92915050565b60008060088360048110611181576111806125ee565b5b6005020190508060020160008573ffffffffffffffffffffffffffffffffffffffff1673ffffffffffffffffffffffffffffffffffffffff1681526020019081526020016000205491505092915050565b6111da612003565b60008160ff16101580156111f1575060048160ff16105b611230576040517f08c379a000000000000000000000000000000000000000000000000000000000815260040161122790612562565b60405180910390fd5b600061123c3383610f12565b905060008111611281576040517f08c379a000000000000000000000000000000000000000000000000000000000815260040161127890612a9f565b60405180910390fd5b60006064600583611292919061292b565b61129c919061299c565b9050600060646003846112af919061292b565b6112b9919061299c565b9050600060646001856112cc919061292b565b6112d6919061299c565b90506000600460003373ffffffffffffffffffffffffffffffffffffffff1673ffffffffffffffffffffffffffffffffffffffff16815260200190815260200160002060009054906101000a900473ffffffffffffffffffffffffffffffffffffffff1690506000600460008373ffffffffffffffffffffffffffffffffffffffff1673ffffffffffffffffffffffffffffffffffffffff16815260200190815260200160002060009054906101000a900473ffffffffffffffffffffffffffffffffffffffff1690506000600460008373ffffffffffffffffffffffffffffffffffffffff1673ffffffffffffffffffffffffffffffffffffffff16815260200190815260200160002060009054906101000a900473ffffffffffffffffffffffffffffffffffffffff169050600073ffffffffffffffffffffffffffffffffffffffff168373ffffffffffffffffffffffffffffffffffffffff16146114da57600260009054906101000a900473ffffffffffffffffffffffffffffffffffffffff1673ffffffffffffffffffffffffffffffffffffffff1663a9059cbb84886040518363ffffffff1660e01b81526004016114959291906129cd565b6020604051808303816000875af11580156114b4573d6000803e3d6000fd5b505050506040513d601f19601f820116820180604052508101906114d891906127c3565b505b600073ffffffffffffffffffffffffffffffffffffffff168273ffffffffffffffffffffffffffffffffffffffff16146115b057600260009054906101000a900473ffffffffffffffffffffffffffffffffffffffff1673ffffffffffffffffffffffffffffffffffffffff1663a9059cbb83876040518363ffffffff1660e01b815260040161156b9291906129cd565b6020604051808303816000875af115801561158a573d6000803e3d6000fd5b505050506040513d601f19601f820116820180604052508101906115ae91906127c3565b505b600073ffffffffffffffffffffffffffffffffffffffff168173ffffffffffffffffffffffffffffffffffffffff161461168657600260009054906101000a900473ffffffffffffffffffffffffffffffffffffffff1673ffffffffffffffffffffffffffffffffffffffff1663a9059cbb82866040518363ffffffff1660e01b81526004016116419291906129cd565b6020604051808303816000875af1158015611660573d6000803e3d6000fd5b505050506040513d601f19601f8201168201806040525081019061168491906127c3565b505b600060088960ff166004811061169f5761169e6125ee565b5b60050201905060008160030160003373ffffffffffffffffffffffffffffffffffffffff1673ffffffffffffffffffffffffffffffffffffffff16815260200190815260200160002054426116f491906128f7565b9050816000015481111561173d576040517f08c379a000000000000000000000000000000000000000000000000000000000815260040161173490612b31565b60405180910390fd5b428260040160003373ffffffffffffffffffffffffffffffffffffffff1673ffffffffffffffffffffffffffffffffffffffff16815260200190815260200160002081905550600260009054906101000a900473ffffffffffffffffffffffffffffffffffffffff1673ffffffffffffffffffffffffffffffffffffffff1663a9059cbb338b6040518363ffffffff1660e01b81526004016117e09291906129cd565b6020604051808303816000875af11580156117ff573d6000803e3d6000fd5b505050506040513d601f19601f8201168201806040525081019061182391906127c3565b503373ffffffffffffffffffffffffffffffffffffffff167ffe150c1079587a96d20587da26df20f85f13fb428954657154bc16e4ec201f558a8c60405161186c929190612862565b60405180910390a2505050505050505050611885612052565b50565b611890612075565b61189a60006120f3565b565b600260009054906101000a900473ffffffffffffffffffffffffffffffffffffffff1681565b60008060009054906101000a900473ffffffffffffffffffffffffffffffffffffffff16905090565b60046020528060005260406000206000915054906101000a900473ffffffffffffffffffffffffffffffffffffffff1681565b6008816004811061192e57600080fd5b600502016000915090508060000154908060010154905082565b60066020528060005260406000206000915090508060000154908060010154905082565b61271081565b6005602052816000526040600020818154811061198e57600080fd5b906000526020600020016000915091509054906101000a900473ffffffffffffffffffffffffffffffffffffffff1681565b3373ffffffffffffffffffffffffffffffffffffffff168173ffffffffffffffffffffffffffffffffffffffff1603611a2e576040517f08c379a0000000000000000000000000000000000000000000000000000000008152600401611a2590612b9d565b60405180910390fd5b600073ffffffffffffffffffffffffffffffffffffffff16600460003373ffffffffffffffffffffffffffffffffffffffff1673ffffffffffffffffffffffffffffffffffffffff16815260200190815260200160002060009054906101000a900473ffffffffffffffffffffffffffffffffffffffff1673ffffffffffffffffffffffffffffffffffffffff1614611afc576040517f08c379a0000000000000000000000000000000000000000000000000000000008152600401611af390612c09565b60405180910390fd5b600360008273ffffffffffffffffffffffffffffffffffffffff1673ffffffffffffffffffffffffffffffffffffffff16815260200190815260200160002060009054906101000a900460ff16611b88576040517f08c379a0000000000000000000000000000000000000000000000000000000008152600401611b7f90612cc1565b60405180910390fd5b600260009054906101000a900473ffffffffffffffffffffffffffffffffffffffff1673ffffffffffffffffffffffffffffffffffffffff1663a9059cbb33681043561a88293000006040518363ffffffff1660e01b8152600401611bee929190612d1c565b6020604051808303816000875af1158015611c0d573d6000803e3d6000fd5b505050506040513d601f19601f82011682018060405250810190611c3191906127c3565b5080600460003373ffffffffffffffffffffffffffffffffffffffff1673ffffffffffffffffffffffffffffffffffffffff16815260200190815260200160002060006101000a81548173ffffffffffffffffffffffffffffffffffffffff021916908373ffffffffffffffffffffffffffffffffffffffff160217905550600560008273ffffffffffffffffffffffffffffffffffffffff1673ffffffffffffffffffffffffffffffffffffffff168152602001908152602001600020339080600181540180825580915050600190039060005260206000200160009091909190916101000a81548173ffffffffffffffffffffffffffffffffffffffff021916908373ffffffffffffffffffffffffffffffffffffffff16021790555050565b611d5b612003565b60008160ff1610158015611d72575060048160ff16105b611db1576040517f08c379a0000000000000000000000000000000000000000000000000000000008152600401611da890612562565b60405180910390fd5b6000611dbd3383610f12565b905082811015611e02576040517f08c379a0000000000000000000000000000000000000000000000000000000008152600401611df990612d91565b60405180910390fd5b4260088360ff1660048110611e1a57611e196125ee565b5b6005020160040160003373ffffffffffffffffffffffffffffffffffffffff1673ffffffffffffffffffffffffffffffffffffffff16815260200190815260200160002081905550600260009054906101000a900473ffffffffffffffffffffffffffffffffffffffff1673ffffffffffffffffffffffffffffffffffffffff1663a9059cbb33856040518363ffffffff1660e01b8152600401611ebf9291906129cd565b6020604051808303816000875af1158015611ede573d6000803e3d6000fd5b505050506040513d601f19601f82011682018060405250810190611f0291906127c3565b503373ffffffffffffffffffffffffffffffffffffffff167ffe150c1079587a96d20587da26df20f85f13fb428954657154bc16e4ec201f558484604051611f4b929190612862565b60405180910390a250611f5c612052565b5050565b611f68612075565b600073ffffffffffffffffffffffffffffffffffffffff168173ffffffffffffffffffffffffffffffffffffffff1603611fd7576040517f08c379a0000000000000000000000000000000000000000000000000000000008152600401611fce90612e23565b60405180910390fd5b611fe0816120f3565b50565b60036020528060005260406000206000915054906101000a900460ff1681565b600260015403612048576040517f08c379a000000000000000000000000000000000000000000000000000000000815260040161203f90612e8f565b60405180910390fd5b6002600181905550565b60018081905550565b60008183101561206b578161206d565b825b905092915050565b61207d6121b7565b73ffffffffffffffffffffffffffffffffffffffff1661209b6118c2565b73ffffffffffffffffffffffffffffffffffffffff16146120f1576040517f08c379a00000000000000000000000000000000000000000000000000000000081526004016120e890612efb565b60405180910390fd5b565b60008060009054906101000a900473ffffffffffffffffffffffffffffffffffffffff169050816000806101000a81548173ffffffffffffffffffffffffffffffffffffffff021916908373ffffffffffffffffffffffffffffffffffffffff1602179055508173ffffffffffffffffffffffffffffffffffffffff168173ffffffffffffffffffffffffffffffffffffffff167f8be0079c531659141344cd1fd0a4f28419497f9722a3daafe3b4186f6b6457e060405160405180910390a35050565b600033905090565b600080fd5b6000819050919050565b6121d7816121c4565b81146121e257600080fd5b50565b6000813590506121f4816121ce565b92915050565b600060ff82169050919050565b612210816121fa565b811461221b57600080fd5b50565b60008135905061222d81612207565b92915050565b6000806040838503121561224a576122496121bf565b5b6000612258858286016121e5565b92505060206122698582860161221e565b9150509250929050565b600060208284031215612289576122886121bf565b5b60006122978482850161221e565b91505092915050565b600073ffffffffffffffffffffffffffffffffffffffff82169050919050565b60006122cb826122a0565b9050919050565b6122db816122c0565b81146122e657600080fd5b50565b6000813590506122f8816122d2565b92915050565b60008060408385031215612315576123146121bf565b5b6000612323858286016122e9565b92505060206123348582860161221e565b9150509250929050565b612347816121c4565b82525050565b6000602082019050612362600083018461233e565b92915050565b6000806040838503121561237f5761237e6121bf565b5b600061238d858286016122e9565b925050602061239e858286016121e5565b9150509250929050565b6000819050919050565b60006123cd6123c86123c3846122a0565b6123a8565b6122a0565b9050919050565b60006123df826123b2565b9050919050565b60006123f1826123d4565b9050919050565b612401816123e6565b82525050565b600060208201905061241c60008301846123f8565b92915050565b61242b816122c0565b82525050565b60006020820190506124466000830184612422565b92915050565b600060208284031215612462576124616121bf565b5b6000612470848285016122e9565b91505092915050565b60006020828403121561248f5761248e6121bf565b5b600061249d848285016121e5565b91505092915050565b60006040820190506124bb600083018561233e565b6124c8602083018461233e565b9392505050565b60008115159050919050565b6124e4816124cf565b82525050565b60006020820190506124ff60008301846124db565b92915050565b600082825260208201905092915050565b7f496e76616c696420706f6f6c2069640000000000000000000000000000000000600082015250565b600061254c600f83612505565b915061255782612516565b602082019050919050565b6000602082019050818103600083015261257b8161253f565b9050919050565b7f416d6f756e74206d7573742062652067726561746572207468616e2030000000600082015250565b60006125b8601d83612505565b91506125c382612582565b602082019050919050565b600060208201905081810360008301526125e7816125ab565b9050919050565b7f4e487b7100000000000000000000000000000000000000000000000000000000600052603260045260246000fd5b60008151905061262c816121ce565b92915050565b600060208284031215612648576126476121bf565b5b60006126568482850161261d565b91505092915050565b7f496e73756666696369656e742062616c616e6365000000000000000000000000600082015250565b6000612695601483612505565b91506126a08261265f565b602082019050919050565b600060208201905081810360008301526126c481612688565b9050919050565b60006040820190506126e06000830185612422565b6126ed6020830184612422565b9392505050565b7f496e73756666696369656e7420616c6c6f77616e636500000000000000000000600082015250565b600061272a601683612505565b9150612735826126f4565b602082019050919050565b600060208201905081810360008301526127598161271d565b9050919050565b60006060820190506127756000830186612422565b6127826020830185612422565b61278f604083018461233e565b949350505050565b6127a0816124cf565b81146127ab57600080fd5b50565b6000815190506127bd81612797565b92915050565b6000602082840312156127d9576127d86121bf565b5b60006127e7848285016127ae565b91505092915050565b7f4e487b7100000000000000000000000000000000000000000000000000000000600052601160045260246000fd5b600061282a826121c4565b9150612835836121c4565b925082820190508082111561284d5761284c6127f0565b5b92915050565b61285c816121fa565b82525050565b6000604082019050612877600083018561233e565b6128846020830184612853565b9392505050565b7f4e6f2062616c616e636520746f20776974686472617700000000000000000000600082015250565b60006128c1601683612505565b91506128cc8261288b565b602082019050919050565b600060208201905081810360008301526128f0816128b4565b9050919050565b6000612902826121c4565b915061290d836121c4565b9250828203905081811115612925576129246127f0565b5b92915050565b6000612936826121c4565b9150612941836121c4565b925082820261294f816121c4565b91508282048414831517612966576129656127f0565b5b5092915050565b7f4e487b7100000000000000000000000000000000000000000000000000000000600052601260045260246000fd5b60006129a7826121c4565b91506129b2836121c4565b9250826129c2576129c161296d565b5b828204905092915050565b60006040820190506129e26000830185612422565b6129ef602083018461233e565b9392505050565b6000606082019050612a0b600083018661233e565b612a18602083018561233e565b612a256040830184612853565b949350505050565b7f4e6f2070726f66697420617661696c61626c6520666f7220776974686472617760008201527f616c000000000000000000000000000000000000000000000000000000000000602082015250565b6000612a89602283612505565b9150612a9482612a2d565b604082019050919050565b60006020820190508181036000830152612ab881612a7c565b9050919050565b7f506f6f6c206475726174696f6e20636f6d706c65746520752063616e2077697460008201527f6864726177616c20616c6c20616d6f756e740000000000000000000000000000602082015250565b6000612b1b603283612505565b9150612b2682612abf565b604082019050919050565b60006020820190508181036000830152612b4a81612b0e565b9050919050565b7f596f752063616e6e6f7420726566657220796f757273656c6600000000000000600082015250565b6000612b87601983612505565b9150612b9282612b51565b602082019050919050565b60006020820190508181036000830152612bb681612b7a565b9050919050565b7f526566657272657220616c726561647920736574000000000000000000000000600082015250565b6000612bf3601483612505565b9150612bfe82612bbd565b602082019050919050565b60006020820190508181036000830152612c2281612be6565b9050919050565b7f546f2075736520746869732020726566657272616c206163636f756e7420746860008201527f6973206163636f756e74206d757374207374616b6520736f6d6520746f6b656e60208201527f20696e20616e7920706f6f6c0000000000000000000000000000000000000000604082015250565b6000612cab604c83612505565b9150612cb682612c29565b606082019050919050565b60006020820190508181036000830152612cda81612c9e565b9050919050565b6000819050919050565b6000612d06612d01612cfc84612ce1565b6123a8565b6121c4565b9050919050565b612d1681612ceb565b82525050565b6000604082019050612d316000830185612422565b612d3e6020830184612d0d565b9392505050565b7f546f6b656e5374616b696e673a204e6f7420656e6f7567682070726f66697400600082015250565b6000612d7b601f83612505565b9150612d8682612d45565b602082019050919050565b60006020820190508181036000830152612daa81612d6e565b9050919050565b7f4f776e61626c653a206e6577206f776e657220697320746865207a65726f206160008201527f6464726573730000000000000000000000000000000000000000000000000000602082015250565b6000612e0d602683612505565b9150612e1882612db1565b604082019050919050565b60006020820190508181036000830152612e3c81612e00565b9050919050565b7f5265656e7472616e637947756172643a207265656e7472616e742063616c6c00600082015250565b6000612e79601f83612505565b9150612e8482612e43565b602082019050919050565b60006020820190508181036000830152612ea881612e6c565b9050919050565b7f4f776e61626c653a2063616c6c6572206973206e6f7420746865206f776e6572600082015250565b6000612ee5602083612505565b9150612ef082612eaf565b602082019050919050565b60006020820190508181036000830152612f1481612ed8565b905091905056fea26469706673582212203853e8d1740f01c619791afb864d4f451e9edda592f6d67f3c4f10747675d10764736f6c6343000818003360806040523480156200001157600080fd5b506040518060400160405280600c81526020017f546f6b656e5374616b696e6700000000000000000000000000000000000000008152506040518060400160405280600381526020017f545343000000000000000000000000000000000000000000000000000000000081525081600390816200008f9190620004e6565b508060049081620000a19190620004e6565b505050620000e633620000b9620000ec60201b60201c565b60ff16600a620000ca919062000750565b620f4240620000da9190620007a1565b620000f560201b60201c565b620008d8565b60006012905090565b600073ffffffffffffffffffffffffffffffffffffffff168273ffffffffffffffffffffffffffffffffffffffff160362000167576040517f08c379a00000000000000000000000000000000000000000000000000000000081526004016200015e906200084d565b60405180910390fd5b6200017b600083836200026260201b60201c565b80600260008282546200018f91906200086f565b92505081905550806000808473ffffffffffffffffffffffffffffffffffffffff1673ffffffffffffffffffffffffffffffffffffffff168152602001908152602001600020600082825401925050819055508173ffffffffffffffffffffffffffffffffffffffff16600073ffffffffffffffffffffffffffffffffffffffff167fddf252ad1be2c89b69c2b068fc378daa952ba7f163c4a11628f55a4df523b3ef83604051620002429190620008bb565b60405180910390a36200025e600083836200026760201b60201c565b5050565b505050565b505050565b600081519050919050565b7f4e487b7100000000000000000000000000000000000000000000000000000000600052604160045260246000fd5b7f4e487b7100000000000000000000000000000000000000000000000000000000600052602260045260246000fd5b60006002820490506001821680620002ee57607f821691505b602082108103620003045762000303620002a6565b5b50919050565b60008190508160005260206000209050919050565b60006020601f8301049050919050565b600082821b905092915050565b6000600883026200036e7fffffffffffffffffffffffffffffffffffffffffffffffffffffffffffffffff826200032f565b6200037a86836200032f565b95508019841693508086168417925050509392505050565b6000819050919050565b6000819050919050565b6000620003c7620003c1620003bb8462000392565b6200039c565b62000392565b9050919050565b6000819050919050565b620003e383620003a6565b620003fb620003f282620003ce565b8484546200033c565b825550505050565b600090565b6200041262000403565b6200041f818484620003d8565b505050565b5b8181101562000447576200043b60008262000408565b60018101905062000425565b5050565b601f821115620004965762000460816200030a565b6200046b846200031f565b810160208510156200047b578190505b620004936200048a856200031f565b83018262000424565b50505b505050565b600082821c905092915050565b6000620004bb600019846008026200049b565b1980831691505092915050565b6000620004d68383620004a8565b9150826002028217905092915050565b620004f1826200026c565b67ffffffffffffffff8111156200050d576200050c62000277565b5b620005198254620002d5565b620005268282856200044b565b600060209050601f8311600181146200055e576000841562000549578287015190505b620005558582620004c8565b865550620005c5565b601f1984166200056e866200030a565b60005b82811015620005985784890151825560018201915060208501945060208101905062000571565b86831015620005b85784890151620005b4601f891682620004a8565b8355505b6001600288020188555050505b505050505050565b7f4e487b7100000000000000000000000000000000000000000000000000000000600052601160045260246000fd5b60008160011c9050919050565b6000808291508390505b60018511156200065b57808604811115620006335762000632620005cd565b5b6001851615620006435780820291505b80810290506200065385620005fc565b945062000613565b94509492505050565b60008262000676576001905062000749565b8162000686576000905062000749565b81600181146200069f5760028114620006aa57620006e0565b600191505062000749565b60ff841115620006bf57620006be620005cd565b5b8360020a915084821115620006d957620006d8620005cd565b5b5062000749565b5060208310610133831016604e8410600b84101617156200071a5782820a905083811115620007145762000713620005cd565b5b62000749565b62000729848484600162000609565b92509050818404811115620007435762000742620005cd565b5b81810290505b9392505050565b60006200075d8262000392565b91506200076a8362000392565b9250620007997fffffffffffffffffffffffffffffffffffffffffffffffffffffffffffffffff848462000664565b905092915050565b6000620007ae8262000392565b9150620007bb8362000392565b9250828202620007cb8162000392565b91508282048414831517620007e557620007e4620005cd565b5b5092915050565b600082825260208201905092915050565b7f45524332303a206d696e7420746f20746865207a65726f206164647265737300600082015250565b600062000835601f83620007ec565b91506200084282620007fd565b602082019050919050565b60006020820190508181036000830152620008688162000826565b9050919050565b60006200087c8262000392565b9150620008898362000392565b9250828201905080821115620008a457620008a3620005cd565b5b92915050565b620008b58162000392565b82525050565b6000602082019050620008d26000830184620008aa565b92915050565b61122f80620008e86000396000f3fe608060405234801561001057600080fd5b50600436106100a95760003560e01c80633950935111610071578063395093511461016857806370a082311461019857806395d89b41146101c8578063a457c2d7146101e6578063a9059cbb14610216578063dd62ed3e14610246576100a9565b806306fdde03146100ae578063095ea7b3146100cc57806318160ddd146100fc57806323b872dd1461011a578063313ce5671461014a575b600080fd5b6100b6610276565b6040516100c39190610b0c565b60405180910390f35b6100e660048036038101906100e19190610bc7565b610308565b6040516100f39190610c22565b60405180910390f35b61010461032b565b6040516101119190610c4c565b60405180910390f35b610134600480360381019061012f9190610c67565b610335565b6040516101419190610c22565b60405180910390f35b610152610364565b60405161015f9190610cd6565b60405180910390f35b610182600480360381019061017d9190610bc7565b61036d565b60405161018f9190610c22565b60405180910390f35b6101b260048036038101906101ad9190610cf1565b6103a4565b6040516101bf9190610c4c565b60405180910390f35b6101d06103ec565b6040516101dd9190610b0c565b60405180910390f35b61020060048036038101906101fb9190610bc7565b61047e565b60405161020d9190610c22565b60405180910390f35b610230600480360381019061022b9190610bc7565b6104f5565b60405161023d9190610c22565b60405180910390f35b610260600480360381019061025b9190610d1e565b610518565b60405161026d9190610c4c565b60405180910390f35b60606003805461028590610d8d565b80601f01602080910402602001604051908101604052809291908181526020018280546102b190610d8d565b80156102fe5780601f106102d3576101008083540402835291602001916102fe565b820191906000526020600020905b8154815290600101906020018083116102e157829003601f168201915b5050505050905090565b60008061031361059f565b90506103208185856105a7565b600191505092915050565b6000600254905090565b60008061034061059f565b905061034d858285610770565b6103588585856107fc565b60019150509392505050565b60006012905090565b60008061037861059f565b905061039981858561038a8589610518565b6103949190610ded565b6105a7565b600191505092915050565b60008060008373ffffffffffffffffffffffffffffffffffffffff1673ffffffffffffffffffffffffffffffffffffffff168152602001908152602001600020549050919050565b6060600480546103fb90610d8d565b80601f016020809104026020016040519081016040528092919081815260200182805461042790610d8d565b80156104745780601f1061044957610100808354040283529160200191610474565b820191906000526020600020905b81548152906001019060200180831161045757829003601f168201915b5050505050905090565b60008061048961059f565b905060006104978286610518565b9050838110156104dc576040517f08c379a00000000000000000000000000000000000000000000000000000000081526004016104d390610e93565b60405180910390fd5b6104e982868684036105a7565b60019250505092915050565b60008061050061059f565b905061050d8185856107fc565b600191505092915050565b6000600160008473ffffffffffffffffffffffffffffffffffffffff1673ffffffffffffffffffffffffffffffffffffffff16815260200190815260200160002060008373ffffffffffffffffffffffffffffffffffffffff1673ffffffffffffffffffffffffffffffffffffffff16815260200190815260200160002054905092915050565b600033905090565b600073ffffffffffffffffffffffffffffffffffffffff168373ffffffffffffffffffffffffffffffffffffffff1603610616576040517f08c379a000000000000000000000000000000000000000000000000000000000815260040161060d90610f25565b60405180910390fd5b600073ffffffffffffffffffffffffffffffffffffffff168273ffffffffffffffffffffffffffffffffffffffff1603610685576040517f08c379a000000000000000000000000000000000000000000000000000000000815260040161067c90610fb7565b60405180910390fd5b80600160008573ffffffffffffffffffffffffffffffffffffffff1673ffffffffffffffffffffffffffffffffffffffff16815260200190815260200160002060008473ffffffffffffffffffffffffffffffffffffffff1673ffffffffffffffffffffffffffffffffffffffff168152602001908152602001600020819055508173ffffffffffffffffffffffffffffffffffffffff168373ffffffffffffffffffffffffffffffffffffffff167f8c5be1e5ebec7d5bd14f71427d1e84f3dd0314c0f7b2291e5b200ac8c7c3b925836040516107639190610c4c565b60405180910390a3505050565b600061077c8484610518565b90507fffffffffffffffffffffffffffffffffffffffffffffffffffffffffffffffff81146107f657818110156107e8576040517f08c379a00000000000000000000000000000000000000000000000000000000081526004016107df90611023565b60405180910390fd5b6107f584848484036105a7565b5b50505050565b600073ffffffffffffffffffffffffffffffffffffffff168373ffffffffffffffffffffffffffffffffffffffff160361086b576040517f08c379a0000000000000000000000000000000000000000000000000000000008152600401610862906110b5565b60405180910390fd5b600073ffffffffffffffffffffffffffffffffffffffff168273ffffffffffffffffffffffffffffffffffffffff16036108da576040517f08c379a00000000000000000000000000000000000000000000000000000000081526004016108d190611147565b60405180910390fd5b6108e5838383610a72565b60008060008573ffffffffffffffffffffffffffffffffffffffff1673ffffffffffffffffffffffffffffffffffffffff1681526020019081526020016000205490508181101561096b576040517f08c379a0000000000000000000000000000000000000000000000000000000008152600401610962906111d9565b60405180910390fd5b8181036000808673ffffffffffffffffffffffffffffffffffffffff1673ffffffffffffffffffffffffffffffffffffffff16815260200190815260200160002081905550816000808573ffffffffffffffffffffffffffffffffffffffff1673ffffffffffffffffffffffffffffffffffffffff168152602001908152602001600020600082825401925050819055508273ffffffffffffffffffffffffffffffffffffffff168473ffffffffffffffffffffffffffffffffffffffff167fddf252ad1be2c89b69c2b068fc378daa952ba7f163c4a11628f55a4df523b3ef84604051610a599190610c4c565b60405180910390a3610a6c848484610a77565b50505050565b505050565b505050565b600081519050919050565b600082825260208201905092915050565b60005b83811015610ab6578082015181840152602081019050610a9b565b60008484015250505050565b6000601f19601f8301169050919050565b6000610ade82610a7c565b610ae88185610a87565b9350610af8818560208601610a98565b610b0181610ac2565b840191505092915050565b60006020820190508181036000830152610b268184610ad3565b905092915050565b600080fd5b600073ffffffffffffffffffffffffffffffffffffffff82169050919050565b6000610b5e82610b33565b9050919050565b610b6e81610b53565b8114610b7957600080fd5b50565b600081359050610b8b81610b65565b92915050565b6000819050919050565b610ba481610b91565b8114610baf57600080fd5b50565b600081359050610bc181610b9b565b92915050565b60008060408385031215610bde57610bdd610b2e565b5b6000610bec85828601610b7c565b9250506020610bfd85828601610bb2565b9150509250929050565b60008115159050919050565b610c1c81610c07565b82525050565b6000602082019050610c376000830184610c13565b92915050565b610c4681610b91565b82525050565b6000602082019050610c616000830184610c3d565b92915050565b600080600060608486031215610c8057610c7f610b2e565b5b6000610c8e86828701610b7c565b9350506020610c9f86828701610b7c565b9250506040610cb086828701610bb2565b9150509250925092565b600060ff82169050919050565b610cd081610cba565b82525050565b6000602082019050610ceb6000830184610cc7565b92915050565b600060208284031215610d0757610d06610b2e565b5b6000610d1584828501610b7c565b91505092915050565b60008060408385031215610d3557610d34610b2e565b5b6000610d4385828601610b7c565b9250506020610d5485828601610b7c565b9150509250929050565b7f4e487b7100000000000000000000000000000000000000000000000000000000600052602260045260246000fd5b60006002820490506001821680610da557607f821691505b602082108103610db857610db7610d5e565b5b50919050565b7f4e487b7100000000000000000000000000000000000000000000000000000000600052601160045260246000fd5b6000610df882610b91565b9150610e0383610b91565b9250828201905080821115610e1b57610e1a610dbe565b5b92915050565b7f45524332303a2064656372656173656420616c6c6f77616e63652062656c6f7760008201527f207a65726f000000000000000000000000000000000000000000000000000000602082015250565b6000610e7d602583610a87565b9150610e8882610e21565b604082019050919050565b60006020820190508181036000830152610eac81610e70565b9050919050565b7f45524332303a20617070726f76652066726f6d20746865207a65726f2061646460008201527f7265737300000000000000000000000000000000000000000000000000000000602082015250565b6000610f0f602483610a87565b9150610f1a82610eb3565b604082019050919050565b60006020820190508181036000830152610f3e81610f02565b9050919050565b7f45524332303a20617070726f766520746f20746865207a65726f20616464726560008201527f7373000000000000000000000000000000000000000000000000000000000000602082015250565b6000610fa1602283610a87565b9150610fac82610f45565b604082019050919050565b60006020820190508181036000830152610fd081610f94565b9050919050565b7f45524332303a20696e73756666696369656e7420616c6c6f77616e6365000000600082015250565b600061100d601d83610a87565b915061101882610fd7565b602082019050919050565b6000602082019050818103600083015261103c81611000565b9050919050565b7f45524332303a207472616e736665722066726f6d20746865207a65726f20616460008201527f6472657373000000000000000000000000000000000000000000000000000000602082015250565b600061109f602583610a87565b91506110aa82611043565b604082019050919050565b600060208201905081810360008301526110ce81611092565b9050919050565b7f45524332303a207472616e7366657220746f20746865207a65726f206164647260008201527f6573730000000000000000000000000000000000000000000000000000000000602082015250565b6000611131602383610a87565b915061113c826110d5565b604082019050919050565b6000602082019050818103600083015261116081611124565b9050919050565b7f45524332303a207472616e7366657220616d6f756e742065786365656473206260008201527f616c616e63650000000000000000000000000000000000000000000000000000602082015250565b60006111c3602683610a87565b91506111ce82611167565b604082019050919050565b600060208201905081810360008301526111f2816111b6565b905091905056fea2646970667358221220968ee3b2c267061924068ba1a91d06322bf44b81d937be824af7cc73976d7cbd64736f6c63430008180033",
  "linkReferences": {},
  "deployedLinkReferences": {}
}